:100000000C9438000C9455000C9455000C94550039
:100010000C9455000C9455000C9455000C9455000C
:100020000C9455000C9455000C9455000C945500FC
:100030000C9455000C9455000C9455000C945500EC
:100040000C9455000C9455000C9455000C945500DC
:100050000C9455000C9455000C9455000C945500CC
:100060000C9455000C9455000C9455000C945500BC
:1000700011241FBECFEFD0E1DEBFCDBF11E0A0E065
:10008000B1E0E2E3F0E102C005900D92A037B107C4
:10009000D9F711E0A0E7B1E001C01D92AF3CB10774
:1000A000E1F70E9457000C9417080C9400000F937E
:1000B0001F93CF93DF938AE090E09093C3018093E6
:1000C000C20181E00E94820360E076EB85EB94EB55
:1000D00040E00E94F00261E076EB85EB94EB41E0BA
:1000E0000E94F00262E076EB85EB94EB42E00E9426
:1000F000F00263E076EB85EB94EB43E00E94F002C4
:1001000064E076EB85EB94EB44E00E94F00265E05E
:1001100076EB85EB94EB45E00E94F00280E00E94D4
:100120007B0281E00E947B0282E00E947B0283E0EE
:100130000E947B0284E00E947B0285E00E947B0299
:100140000E94DF0085E091E09093CE018093CD0185
:100150009093CA018093C9019093CC018093CB0105
:100160008091C2019091C3010E94EE038C01C0E016
:10017000D1E00E945E038130E1F7C8010E94E501F1
:1001800000D000D000D0EDB7FEB731962091CB0162
:100190003091CC01ADB7BEB712963C932E93119718
:1001A000D383C283048315830E9421058DB79EB734
:1001B00006960FB6F8949EBF0FBE8DBFDACF87E6C6
:1001C0008093C40088E18093C10008951F93182F85
:1001D000873049F46091CD017091CE0183E191E0C7
:1001E0000E9435050BC08A3019F48DE00E94E600AC
:1001F0008091C00085FFFCCF1093C60080E090E0A6
:100200001F910895EF92FF920F931F93CF93DF9367
:10021000EC018091700190917101009709F0A1C0EB
:1002200002E711E08091C00087FFFCCF8091C00001
:1002300084FDA8C08091C00083FDA7C08091C60046
:100240008D3011F08A3069F48AE0F8018083BE01B4
:100250000E94E60082E791E0909371018093700123
:1002600080C0893009F480E2982F90529F3510F0B9
:10027000803A68F0F1E0013C1F0711F487E003C009
:10028000F80181938F01BE010E94E600CBCF82313D
:1002900039F1833130F4833009F477C0883011F6B6
:1002A0000AC0873131F08F3731F0853109F0BACF8C
:1002B00038C0780148C0F1E002371F0709F008F4A0
:1002C000B1CF88E0BE010E94E60080E2BE010E943C
:1002D000E60088E0BE010E94E60001501040A2CF77
:1002E0008DE0BE010E94E60082E7E82E81E0F82E54
:1002F00006C0F70181917F01BE010E94E600E01671
:10030000F106B8F38FCF88E0BE010E94E60080E2DC
:10031000BE010E94E60088E0BE010E94E600015096
:100320001040F1E002371F0709F068F77BCF88E043
:10033000BE010E94E60080E2BE010E94E60088E065
:10034000BE010E94E600870182E7E81681E0F80618
:1003500009F008F467CFF70182917F01803239F705
:1003600061CFE0917001F09171012191F0937101E1
:10037000E09370012A3021F4109271011092700103
:1003800030E005C02EEF3FEF02C02FEF3FEFC90175
:10039000DF91CF911F910F91FF90EF9008958130E1
:1003A00011F42C9A0895882309F42C98089581302B
:1003B00011F42A9A0895882309F42A9808958EBD85
:1003C0000DB407FEFDCF8EB50895FF920F931F93D6
:1003D000CF93DF938C0180E00E94D70180E00E94E0
:1003E000CF0181E60E94DF018EB58093C401FF2416
:1003F00008C080E00E94DF018EB5C00FD11F888346
:10040000F394CF2DD0E08091C2019091C301C81721
:10041000D90778F381E00E94CF0181E00E94D701E3
:100420008091C40190E08E70907095958795DF91D2
:10043000CF911F910F91FF9008951F93182F88510E
:10044000843098F01E3188F480E00E94CF01812F23
:100450000E94DF018EB58093C40180E00E94DF011D
:1004600081E00E94CF018EB501C08FEF1F910895EA
:100470001F93DF93CF930F92CDB7DEB7182F80E095
:1004800069830E94CF01812F80620E94DF01698110
:10049000862F0E94DF0181E00E94CF010F90CF9153
:1004A000DF911F910895682F85E00E94380208951A
:1004B0000F931F93082F80E00E941D02182F002326
:1004C00049F480E00E94D701612F6E7F80E00E9496
:1004D000380208C0682F616080E00E94380281E025
:1004E0000E94D70187E092E00197F1F700C0000079
:1004F0001F910F9108950F931F93082F863038F0A6
:100500006091CB017091CC018BE191E00FC0209103
:10051000C2013091C301215030402032310548F0F2
:100520006091CB017091CC0180E491E00E9435058F
:100530002AC082E00E941D02182F0330A1F004306F
:1005400028F4013051F0023029F40AC0043071F06F
:10055000053079F0116081E10EC0126082E10BC0BC
:10056000146083E108C0186084E105C0106185E172
:1005700002C0106286E16091C2010E94380282E0EE
:10058000612F0E9438021F910F9108950F931F93BE
:10059000CF93DF93182F062F80E00E94CF01812F89
:1005A00080620E94DF018EB58093C401802F0E947B
:1005B000DF01C02FD0E080E00E94DF01990F880B9F
:1005C000982F0E94DF01990F880B982F0E94DF015E
:1005D00081E00E94CF01DF91CF911F910F9108958B
:1005E000842F865F423018F40E94C60208950E944C
:1005F0003802089580E10E94C602089587E060E70E
:100600000E943802089580E00E94CF018FEF0E947F
:10061000DF018EB58093C40181E00E94CF018091FB
:10062000C40108950E9403038091C40185FF04C0A2
:100630000E94FE0281E0089584FF04C00E94FE0231
:1006400082E0089580E008951F93CF93DF93EC013B
:1006500080E00E94CF0180EA0E94DF018093C40104
:1006600010E007C08C0F9D1FFC0180810E94DF01FC
:100670001F5F812F90E02091C2013091C30182174A
:10068000930780F381E00E94CF0181E00E94D701AF
:10069000F5E3FA95F1F7000087E092E00197F1F7B2
:1006A00000C000000E941203813019F08230D1F79F
:1006B00001C081E0DF91CF911F9108950E94030353
:1006C0009091C4019E7081E09E3009F480E008950D
:1006D00080E00E94CF0181EE0E94DF018EB5809301
:1006E000C40181E00E94CF01089580E00E94CF0103
:1006F00082EE0E94DF018EB58093C40181E00E94EA
:10070000CF0108951F93182F2091C2013091C3018A
:10071000215030402032310548F06091CB0170917A
:10072000CC0180E491E00E9435054AC084EB84B995
:1007300080E58CBD80E00E94D7018FEF91EEA4E0B0
:1007400081509040A040E1F700C0000083E062E0EB
:100750000E94380285E060E00E94380286E06EE088
:100760000E94380281E16091C2010E94380282E158
:100770006091C2010E9438028DE160E00E9438025F
:100780008CE160E00E943802113019F481E06FE3DF
:1007900002C081E060E00E94380280E06BE00E94CD
:1007A00038020E94FE020E9468030E947503AFE1B6
:1007B000BEE41197F1F700C0000081E00E94D7016C
:1007C0001F9108950E9403038091C40186FF04C015
:1007D0000E94FE0281E0089580E00895CF93DF93A8
:1007E0008230910510F482E090E0E091C701F09131
:1007F000C80140E050E020E030E026C06081718117
:1008000068177907E0F06817790781F4828193818E
:100810002115310531F0D90113969C938E931297CF
:100820002BC09093C8018093C70126C04115510584
:1008300019F06417750718F4AB01E901DF019F0196
:1008400072816381E72FF62F3097C1F6411551056C
:1008500001F1481B590B4430510580F412968D91DB
:100860009C911397209719F09B838A8304C09093DF
:10087000C8018093C701FD01329646C0FD01E40F17
:10088000F51F819391934250504011965C934E9383
:100890003BC02091C5013091C6012115310541F4BD
:1008A00020916B0130916C013093C6012093C501FA
:1008B00020916D0130916E012115310541F42DB764
:1008C0003EB74091690150916A01241B350BE091BC
:1008D000C501F091C601E217F307A0F42E1B3F0BF0
:1008E0002817390778F0AC014E5F5F4F24173507A2
:1008F00048F04E0F5F1F5093C6014093C50181938E
:10090000919302C0E0E0F0E0CF01DF91CF91089534
:10091000CF93DF93009709F491C0FC0132971382C3
:1009200012826091C7017091C8016115710581F44F
:1009300020813181280F391F8091C5019091C60116
:100940008217930799F5F093C601E093C50176C02D
:10095000DB0180E090E002C0CD01D901AE17BF07F6
:1009600048F412962D913C91139721153105A1F76A
:10097000CD0121C0B383A283EF01499159919E011A
:10098000240F351FA217B30779F42D913C911197CD
:10099000240F351F2E5F3F4F3183208312962D91F8
:1009A0003C91139733832283009729F4F093C80175
:1009B000E093C70143C0DC011396FC93EE931297BA
:1009C0004D915D91A40FB51FEA17FB0769F42081D3
:1009D0003181240F351F2E5F3F4FEC01398328836F
:1009E000228133813B832A83E0E0F0E002C0FB01F7
:1009F000BC01DB0112968D919C9113970097B9F77A
:100A00009B012E5F3F4F8D919C911197820F931FF9
:100A10004091C5015091C6014817590779F43097A4
:100A200029F41092C8011092C70102C013821282E9
:100A3000225030403093C6012093C501DF91CF9101
:100A40000895A0E0B0E0E7E2F5E00C94F0079E0125
:100A5000275F3F4F8D819E816F817885A9010E941C
:100A600059052096E2E00C940C08EF92FF920F9348
:100A70001F93CF93DF937C01EB018B8181FF11C02A
:100A800000E010E008C0E885F985BE0109950097EF
:100A900011F00FEF1FEFF70181917F01882399F784
:100AA00002C00FEF1FEFC801CDB7DEB7E6E00C9430
:100AB0000808ACE0B0E0EFE5F5E00C94E0076C016D
:100AC0001B018A01FC0117821682838181FFD1C13B
:100AD0002E010894411C511CF6019381F10193FDF4
:100AE000859193FF81911F01882309F4BEC185324E
:100AF00039F493FD859193FF81911F01853229F48B
:100B000090E0B6010E945607E7CFEE24FF2420E0D4
:100B10002032B0F48B3269F08C3228F4803251F0FC
:100B2000833271F40BC08D3239F0803349F4216087
:100B30002CC02260246029C0286027C0206125C005
:100B400027FD2CC0382F30533A3098F426FF08C0C8
:100B50008E2D880FE82EEE0CEE0CE80EE30E15C07D
:100B60008F2D880FF82EFF0CFF0CF80EF30E20626D
:100B70000CC08E3221F426FD78C1206406C08C366C
:100B800011F4206802C0883649F4F10193FD859183
:100B900093FF81911F01882309F0BACF982F9554B4
:100BA000933018F09052933028F40C5F1F4FFFE3FE
:100BB000F9830DC0833631F0833771F0833509F046
:100BC00060C022C0F801808189830E5F1F4F4201FF
:100BD00071E0A72EB12C16C062E0662E712C600E5B
:100BE000711EF8018080918026FF03C06E2D70E099
:100BF00002C06FEF7FEFC4012C870E944B075C019E
:100C000083012C852F7717C052E0652E712C600E62
:100C1000711EF8018080918026FF03C06E2D70E068
:100C200002C06FEF7FEFC4012C870E9440075C0178
:100C30002C852068830123FD20C008C080E290E05D
:100C4000B6012C870E945607FA942C858F2D90E0D0
:100C5000A816B90698F311C0F40127FD859127FF66
:100C600081914F0190E0B6012C870E9456072C8598
:100C7000F110FA940894A108B108A114B10461F725
:100C8000F1C0843611F0893649F527FF08C0F80114
:100C900060817181828193810C5F1F4F09C0F801CF
:100CA00060817181882777FD8095982F0E5F1F4F97
:100CB0004FE6B42EB22297FF09C0909580957095AB
:100CC00061957F4F8F4F9F4FF0E8BF2AA2012AE026
:100CD00030E00E948207782E741845C0853731F4C1
:100CE0003FEEB32EB2222AE030E025C099EFB92EB4
:100CF000B2228F36C1F0803720F4883509F0B5C0B4
:100D00000DC0803721F0883709F0AFC002C020E164
:100D1000B22AB4FE0BC084E0B82A08C0B4FE09C0F1
:100D2000E6E0BE2A06C028E030E005C020E130E061
:100D300002C020E132E0B7FE08C0F8016081718195
:100D4000828193810C5F1F4F07C0F8016081718120
:100D500080E090E00E5F1F4FA2010E948207782E74
:100D60007418FFE7BF22B6FE0BC02EEFB2227E142E
:100D700038F4B4FE07C0B2FC05C08FEEB82202C042
:100D8000A72C01C0AE2C8B2D90E0B4FE0DC0FE014F
:100D9000E70DF11D2081203319F4E9EEBE2209C0D0
:100DA000A394B2FE06C004C086789070009709F044
:100DB000A3948B2C9924B3FC14C0B0FE0FC0AF14C5
:100DC00028F4E72CEF0CEA18AF2C08C0E72C06C07B
:100DD00080E290E0B6010E945607A394AF14C0F3DE
:100DE00004C0AF1410F4FA1801C0FF2484FE0FC031
:100DF00080E390E0B6010E94560782FE1FC081FE8C
:100E000003C088E590E010C088E790E00DC0C40101
:100E100086789070009791F081FC02C080E201C05A
:100E20008BE2B7FC8DE290E0B6010E94560706C047
:100E300080E390E0B6010E945607EA947E14C0F366
:100E40007A94F201E70DF11D808190E0B6010E94D5
:100E500056077720A9F706C080E290E0B6010E940D
:100E60005607FA94FF20C1F737CEF6012681378165
:100E700002C02FEF3FEFC9012C96E2E10C94FC0772
:100E8000FC010590615070400110D8F78095909555
:100E90008E0F9F1F0895FC0161507040019001105A
:100EA000D8F7809590958E0F9F1F08950F931F93ED
:100EB000CF93DF938C01EB018B8181FF1BC082FFFD
:100EC0000DC02E813F818C819D812817390764F4E4
:100ED000E881F9810193F983E88306C0E885F98503
:100EE000802F0995009731F48E819F8101969F8311
:100EF0008E8302C00FEF1FEFC801DF91CF911F91CA
:100F00000F910895FA01AA27283051F1203181F17B
:100F1000E8946F936E7F6E5F7F4F8F4F9F4FAF4F01
:100F2000B1E03ED0B4E03CD0670F781F891F9A1F14
:100F3000A11D680F791F8A1F911DA11D6A0F711DC8
:100F4000811D911DA11D20D009F468943F912AE0D4
:100F5000269F11243019305D3193DEF6CF010895BC
:100F6000462F4770405D4193B3E00FD0C9F7F6CFED
:100F7000462F4F70405D4A3318F0495D31FD4052B5
:100F8000419302D0A9F7EACFB4E0A695979587954B
:100F900077956795BA95C9F700976105710508952A
:100FA0009B01AC010A2E06945795479537952795D6
:100FB000BA95C9F7620F731F841F951FA01D08956E
:100FC0002F923F924F925F926F927F928F929F9259
:100FD000AF92BF92CF92DF92EF92FF920F931F9347
:100FE000CF93DF93CDB7DEB7CA1BDB0B0FB6F894F8
:100FF000DEBF0FBECDBF09942A88398848885F8438
:101000006E847D848C849B84AA84B984C884DF80A8
:10101000EE80FD800C811B81AA81B981CE0FD11D8C
:101020000FB6F894DEBF0FBECDBFED010895F89462
:02103000FFCFF0
:101032003C25733E000000000300000000E60002B1
:101042000100002A72696E672A0A005069706520E1
:101052006E756D626572206D7573742062652069AC
:101062006E2072616E6765203020746F20350A0031
:101072005041594C4F41445F4C454E475448206DB6
:1010820075737420626520696E2072616E676520D7
:101092003120746F2033320A002000CF010000009B
:00000001FF
