:100000000C9438000C9455000C9455000C94550039
:100010000C9455000C9455000C9455000C9455000C
:100020000C9455000C9455000C9455000C945500FC
:100030000C9455000C9455000C9455000C945500EC
:100040000C9455000C9455000C9455000C945500DC
:100050000C9455000C9455000C9455000C945500CC
:100060000C9455000C9455000C9455000C945500BC
:1000700011241FBECFEFD0E1DEBFCDBF11E0A0E065
:10008000B1E0E2EBFAE002C005900D92A437B107AF
:10009000D9F711E0A4E7B1E001C01D92A33DB1077B
:1000A000E1F70E9457000C9457050C940000EF9262
:1000B000FF921F93CF93DF9384E090E09093C7016A
:1000C0008093C6010E94AA006AE071E07093D20199
:1000D0006093D1017093CE016093CD017093D001F4
:1000E0006093CF0180E091E00E94180580E00E94BB
:1000F0004D0360E076EB85EB94EB40E00E94BB02A1
:100100008091C6019091C7010E94B903E82EE701D2
:100110007E01F92EE7010E9429038130E1F7CE012B
:100120000E94B00110E00CC08C0F9D1F6091CF01A8
:100130007091D001FC01808190E00E94EC041F5F6F
:10014000812F90E02091C6013091C701821793075B
:1001500010F7EACF87E68093C40088E18093C1005E
:1001600008951F93182F873049F46091D101709141
:10017000D20188E191E00E9418050BC08A3019F481
:100180008DE00E94B1008091C00085FFFCCF1093EC
:10019000C60080E090E01F910895EF92FF920F93C8
:1001A0001F93CF93DF93EC018091740190917501BF
:1001B000009709F0A1C006E711E08091C00087FF19
:1001C000FCCF8091C00084FDA8C08091C00083FD59
:1001D000A7C08091C6008D3011F08A3069F48AE0A2
:1001E000F8018083BE010E94B10086E791E0909300
:1001F00075018093740180C0893009F480E2982FE2
:1002000090529F3510F0803A68F0F1E0053C1F07EE
:1002100011F487E003C0F80181938F01BE010E94B1
:10022000B100CBCF823139F1833130F4833009F41E
:1002300077C0883011F60AC0873131F08F3731F03E
:10024000853109F0BACF38C0780148C0F1E00637EF
:100250001F0709F008F4B1CF88E0BE010E94B10089
:1002600080E2BE010E94B10088E0BE010E94B100A0
:1002700001501040A2CF8DE0BE010E94B10086E780
:10028000E82E81E0F82E06C0F70181917F01BE01C2
:100290000E94B100E016F106B8F38FCF88E0BE01EE
:1002A0000E94B10080E2BE010E94B10088E0BE0160
:1002B0000E94B10001501040F1E006371F0709F01D
:1002C00068F77BCF88E0BE010E94B10080E2BE01EA
:1002D0000E94B10088E0BE010E94B100870186E75C
:1002E000E81681E0F80609F008F467CFF70182917B
:1002F0007F01803239F761CFE0917401F09175018F
:100300002191F0937501E09374012A3021F4109249
:1003100075011092740130E005C02EEF3FEF02C06E
:100320002FEF3FEFC901DF91CF911F910F91FF9008
:10033000EF900895813011F42C9A0895882309F4E0
:100340002C980895813011F42A9A0895882309F48D
:100350002A9808958EBD0DB407FEFDCF8EB5089581
:10036000FF920F931F93CF93DF938C0180E00E9445
:10037000A20180E00E949A0181E60E94AA018EB546
:100380008093C801FF2408C080E00E94AA018EB5B6
:10039000C00FD11F8883F394CF2DD0E08091C60188
:1003A0009091C701C817D90778F381E00E949A019C
:1003B00081E00E94A2018091C80190E08E7090704F
:1003C00095958795DF91CF911F910F91FF9008959B
:1003D0001F93182F8851843098F01E3188F480E0E4
:1003E0000E949A01812F0E94AA018EB58093C801B4
:1003F00080E00E94AA0181E00E949A018EB501C0AE
:100400008FEF1F9108951F93DF93CF930F92CDB776
:10041000DEB7182F80E069830E949A01812F8062E5
:100420000E94AA016981862F0E94AA0181E00E9490
:100430009A010F90CF91DF911F910895682F85E069
:100440000E94030208950F931F93082F80E00E94DB
:10045000E801182F002349F480E00E94A201612FD7
:100460006E7F80E00E94030208C0682F616080E018
:100470000E94030281E00E94A20187E092E00197BE
:10048000F1F700C000001F910F9108950F931F9383
:10049000082F863038F06091CF017091D00180E252
:1004A00091E00FC02091C6013091C701215030402A
:1004B0002032310548F06091CF017091D00185E480
:1004C00091E00E9418052AC082E00E94E801182FDE
:1004D0000330A1F0043028F4013051F0023029F447
:1004E0000AC0043071F0053079F0116081E10EC06E
:1004F000126082E10BC0146083E108C0186084E1DF
:1005000005C0106185E102C0106286E16091C601FC
:100510000E94030282E0612F0E9403021F910F914B
:1005200008950F931F93CF93DF93182F062F80E02A
:100530000E949A01812F80620E94AA018EB5809349
:10054000C801802F0E94AA01C02FD0E080E00E9445
:10055000AA01990F880B982F0E94AA01990F880B66
:10056000982F0E94AA0181E00E949A01DF91CF9109
:100570001F910F910895842F865F423018F40E94D6
:10058000910208950E940302089580E10E94910261
:10059000089587E060E70E940302089580E00E94CA
:1005A0009A018FEF0E94AA018EB58093C80181E065
:1005B0000E949A018091C80108950E94CE02809104
:1005C000C80185FF04C00E94C90281E0089584FF2C
:1005D00004C00E94C90282E0089580E008951F933C
:1005E000CF93DF93EC0180E00E949A0180EA0E94A1
:1005F000AA018093C80110E007C08C0F9D1FFC0169
:1006000080810E94AA011F5F812F90E02091C60186
:100610003091C7018217930780F381E00E949A010D
:1006200081E00E94A201F5E3FA95F1F7000087E06E
:1006300092E00197F1F700C000000E94DD028130D6
:1006400019F08230D1F701C081E0DF91CF911F9185
:1006500008950E94CE029091C8019E7081E09E3064
:1006600009F480E0089580E00E949A0181EE0E94E2
:10067000AA018EB58093C80181E00E949A01089575
:1006800080E00E949A0182EE0E94AA018EB58093BA
:10069000C80181E00E949A0108951F93182F2091AC
:1006A000C6013091C701215030402032310548F059
:1006B0006091CF017091D00185E491E00E9418050E
:1006C0004AC084EB84B980E58CBD80E00E94A20121
:1006D0008FEF91EEA4E081509040A040E1F700C080
:1006E000000083E062E00E94030285E060E00E9477
:1006F000030286E06EE00E94030281E16091C60180
:100700000E94030282E16091C6010E9403028DE112
:1007100060E00E9403028CE160E00E94030211305D
:1007200019F481E06FE302C081E060E00E940302FF
:1007300080E06BE00E9403020E94C9020E94330322
:100740000E944003AFE1BEE41197F1F700C0000042
:1007500081E00E94A2011F9108950E94CE02809123
:10076000C80186FF04C00E94C90281E0089580E0AC
:100770000895CF93DF938230910510F482E090E0EA
:10078000E091CB01F091CC0140E050E020E030E07E
:1007900026C06081718168177907E0F068177907D2
:1007A00081F4828193812115310531F0D9011396AD
:1007B0009C938E9312972BC09093CC018093CB0186
:1007C00026C04115510519F06417750718F4AB01DF
:1007D000E901DF019F0172816381E72FF62F3097D6
:1007E000C1F64115510501F1481B590B4430510523
:1007F00080F412968D919C911397209719F09B830A
:100800008A8304C09093CC018093CB01FD01329682
:1008100046C0FD01E40FF51F819391934250504073
:1008200011965C934E933BC02091C9013091CA014F
:100830002115310541F420917001309171013093FF
:10084000CA012093C90120917201309173012115D1
:10085000310541F42DB73EB740916E0150916F01C3
:10086000241B350BE091C901F091CA01E217F3078F
:10087000A0F42E1B3F0B2817390778F0AC014E5F10
:100880005F4F2417350748F04E0F5F1F5093CA0182
:100890004093C9018193919302C0E0E0F0E0CF0161
:1008A000DF91CF910895CF93DF93009709F491C022
:1008B000FC013297138212826091CB017091CC01BE
:1008C0006115710581F420813181280F391F8091D4
:1008D000C9019091CA018217930799F5F093CA0153
:1008E000E093C90176C0DB0180E090E002C0CD0159
:1008F000D901AE17BF0748F412962D913C9113977A
:1009000021153105A1F7CD0121C0B383A283EF01E9
:10091000499159919E01240F351FA217B30779F40D
:100920002D913C911197240F351F2E5F3F4F31833E
:10093000208312962D913C91139733832283009745
:1009400029F4F093CC01E093CB0143C0DC01139672
:10095000FC93EE9312974D915D91A40FB51FEA178A
:10096000FB0769F420813181240F351F2E5F3F4F33
:10097000EC0139832883228133813B832A83E0E0A1
:10098000F0E002C0FB01BC01DB0112968D919C914D
:1009900013970097B9F79B012E5F3F4F8D919C9164
:1009A0001197820F931F4091C9015091CA014817B6
:1009B000590779F4309729F41092CC011092CB01A9
:1009C00002C013821282225030403093CA01209319
:1009D000C901DF91CF9108950F931F93CF93DF93B8
:1009E0008C01EB018B8181FF1BC082FF0DC02E812A
:1009F0003F818C819D812817390764F4E881F98152
:100A00000193F983E88306C0E885F985802F09956D
:100A1000009731F48E819F8101969F838E8302C05F
:100A20000FEF1FEFC801DF91CF911F910F91089534
:100A3000EF92FF920F931F93CF93DF937C01EB0113
:100A40008B8181FF11C000E010E008C0E885F985C6
:100A5000BE010995009711F00FEF1FEFF70181918B
:100A60007F01882399F702C00FEF1FEFC801CDB7B0
:100A7000DEB7E6E00C9448052A88398848885F8408
:100A80006E847D848C849B84AA84B984C884DF802E
:100A9000EE80FD800C811B81AA81B981CE0FD11D12
:100AA0000FB6F894DEBF0FBECDBFED010895F894E8
:020AB000FFCF76
:100AB2007374617274696E670A00000000030000BB
:100AC2000000B100CD0000002A72696E672A0A0098
:100AD20050697065206E756D626572206D757374F4
:100AE20020626520696E2072616E67652030207415
:100AF2006F20350A005041594C4F41445F4C454EDE
:100B0200475448206D75737420626520696E2072A7
:100B1200616E6765203120746F2033320A00200035
:040B2200D3010000FB
:00000001FF
