:100000000C9438000C9455000C9455000C94550039
:100010000C9455000C9455000C9455000C9455000C
:100020000C9455000C9455000C9455000C945500FC
:100030000C9455000C9455000C9455000C945500EC
:100040000C947B000C9455000C9455000C945500B6
:100050000C9455000C9455000C9455000C945500CC
:100060000C9455000C9455000C9455000C945500BC
:1000700011241FBECFEFD0E1DEBFCDBF11E0A0E065
:10008000B1E0E8EDF0E102C005900D92A239B107B0
:10009000D9F711E0A2E9B1E001C01D92A53FB10777
:1000A000E1F70E94B2000C946A080C94000082E010
:1000B00080936E0099EF97BD93E095BD84BD10923B
:1000C000E6011092E7011092E8011092E9010E9406
:1000D0001E0168E271E07093F4016093F301EFEEAA
:1000E000F1E0718360837383628380E091E00E941A
:1000F0008805789408951F920F920FB60F921124DD
:100100002F938F939F93AF93BF938091E60190912C
:10011000E701A091E801B091E901803127E292075F
:1001200020E0A20720E0B20798F48091E6019091C8
:10013000E701A091E801B091E9010196A11DB11D6F
:100140008093E6019093E701A093E801B093E90161
:10015000BF91AF919F918F912F910F900FBE0F90F4
:100160001F901895CF92DF92EF92FF920F931F93FB
:10017000CF93DF930E94570080E290E09093E501D7
:100180008093E40181E00E94C10360E076EB85EB9F
:1001900094EB40E00E942F038091E4019091E501EF
:1001A0000E9441046C01CEE0D1E08AE0E82EF12CFF
:1001B00000E010E00E949D03813029F4C6010E94F6
:1001C00024020F5F1F4F8091E6019091E701A091FB
:1001D000E801B091E901803127E2920720E0A2070F
:1001E00020E0B20739F700D000D000D0EDB7FEB75D
:1001F00031968091F1019091F201ADB7BEB71296A0
:100200009C938E931197D383C283C801B7010E9438
:100210002D04758364830E9474051092E601109288
:10022000E7011092E8011092E9018DB79EB706969A
:100230000FB6F8949EBF0FBE8DBFBACF87E68093EE
:10024000C40088E18093C10008951F93182F873060
:1002500049F46091F3017091F40186E391E00E940A
:1002600088050BC08A3019F48DE00E942501809129
:10027000C00085FFFCCF1093C60080E090E01F9186
:100280000895EF92FF920F931F93CF93DF93EC01AA
:100290008091920190919301009709F0A1C004E927
:1002A00011E08091C00087FFFCCF8091C00084FDE9
:1002B000A8C08091C00083FDA7C08091C6008D308A
:1002C00011F08A3069F48AE0F8018083BE010E944F
:1002D000250184E991E0909393018093920180C07D
:1002E000893009F480E2982F90529F3510F0803ABF
:1002F00068F0F1E0033E1F0711F487E003C0F80146
:1003000081938F01BE010E942501CBCF823139F14B
:10031000833130F4833009F477C0883011F60AC095
:10032000873131F08F3731F0853109F0BACF38C0DD
:10033000780148C0F1E004391F0709F008F4B1CF93
:1003400088E0BE010E94250180E2BE010E942501D5
:1003500088E0BE010E94250101501040A2CF8DE02F
:10036000BE010E94250184E9E82E81E0F82E06C036
:10037000F70181917F01BE010E942501E016F1067F
:10038000B8F38FCF88E0BE010E94250180E2BE0154
:100390000E94250188E0BE010E9425010150104005
:1003A000F1E004391F0709F068F77BCF88E0BE0150
:1003B0000E94250180E2BE010E94250188E0BE0165
:1003C0000E942501870184E9E81681E0F80609F01A
:1003D00008F467CFF70182917F01803239F761CF4E
:1003E000E0919201F09193012191F0939301E093B8
:1003F00092012A3021F4109293011092920130E080
:1004000005C02EEF3FEF02C02FEF3FEFC901DF9194
:10041000CF911F910F91FF90EF900895813011F4CB
:100420002C9A0895882309F42C980895813011F4AA
:100430002A9A0895882309F42A9808958EBD0DB448
:1004400007FEFDCF8EB50895FF920F931F93CF93B4
:10045000DF938C0180E00E94160280E00E940E0271
:1004600081E60E941E028EB58093EA01FF2408C037
:1004700080E00E941E028EB5C00FD11F8883F394C6
:10048000CF2DD0E08091E4019091E501C817D90704
:1004900078F381E00E940E0281E00E9416028091B2
:1004A000EA0190E08E70907095958795DF91CF91DD
:1004B0001F910F91FF9008951F93182F885184303A
:1004C00098F01E3188F480E00E940E02812F0E9475
:1004D0001E028EB58093EA0180E00E941E0281E038
:1004E0000E940E028EB501C08FEF1F9108951F93D9
:1004F000DF93CF930F92CDB7DEB7182F80E06983DB
:100500000E940E02812F80620E941E026981862F46
:100510000E941E0281E00E940E020F90CF91DF9197
:100520001F910895682F85E00E94770208950F9328
:100530001F93082F80E00E945C02182F002349F4CB
:1005400080E00E941602612F6E7F80E00E94770299
:1005500008C0682F616080E00E94770281E00E94FD
:10056000160287E092E00197F1F700C000001F91AA
:100570000F9108950F931F93082F863038F06091E4
:10058000F1017091F2018EE391E00FC02091E4013E
:100590003091E501215030402032310548F0609122
:1005A000F1017091F20183E691E00E9488052AC072
:1005B00082E00E945C02182F0330A1F0043028F47E
:1005C000013051F0023029F40AC0043071F00530D6
:1005D00079F0116081E10EC0126082E10BC01460FD
:1005E00083E108C0186084E105C0106185E102C0A4
:1005F000106286E16091E4010E94770282E0612F3F
:100600000E9477021F910F9108950F931F93CF932C
:10061000DF93182F062F80E00E940E02812F806248
:100620000E941E028EB58093EA01802F0E941E0256
:10063000C02FD0E080E00E941E02990F880B982FF7
:100640000E941E02990F880B982F0E941E0281E0C3
:100650000E940E02DF91CF911F910F910895842F78
:10066000865F423018F40E94050308950E947702C5
:10067000089580E10E940503089587E060E70E94E5
:100680007702089580E00E940E028FEF0E941E0202
:100690008EB58093EA0181E00E940E028091EA010A
:1006A00008950E9442038091EA0185FF04C00E94E0
:1006B0003D0381E0089584FF04C00E943D0382E071
:1006C000089580E008951F93CF93DF93EC0180E0BD
:1006D0000E940E0280EA0E941E028093EA0110E04E
:1006E00007C08C0F9D1FFC0180810E941E021F5FAE
:1006F000812F90E02091E4013091E501821793076A
:1007000080F381E00E940E0281E00E941602F5E370
:10071000FA95F1F7000087E092E00197F1F700C049
:1007200000000E945103813019F08230D1F701C0DE
:1007300081E0DF91CF911F9108950E944203909133
:10074000EA019E7081E09E3009F480E0089580E027
:100750000E940E0281EE0E941E028EB58093EA0175
:1007600081E00E940E02089580E00E940E0282EE57
:100770000E941E028EB58093EA0181E00E940E0263
:1007800008951F93182F2091E4013091E501215025
:1007900030402032310548F06091F1017091F20152
:1007A00083E691E00E9488054AC084EB84B980E525
:1007B0008CBD80E00E9416028FEF91EEA4E0815084
:1007C0009040A040E1F700C0000083E062E00E949A
:1007D000770285E060E00E94770286E06EE00E948A
:1007E000770281E16091E4010E94770282E16091E9
:1007F000E4010E9477028DE160E00E9477028CE1C3
:1008000060E00E947702113019F481E06FE302C0CA
:1008100081E060E00E94770280E06BE00E94770256
:100820000E943D030E94A7030E94B403AFE1BEE40F
:100830001197F1F700C0000081E00E9416021F919D
:1008400008950E9442038091EA0186FF04C00E943D
:100850003D0381E0089580E00895AA1BBB1B51E190
:1008600007C0AA1FBB1FA617B70710F0A61BB70B20
:10087000881F991F5A95A9F780959095BC01CD01C5
:100880000895CF93DF938230910510F482E090E0D9
:10089000E091ED01F091EE0140E050E020E030E029
:1008A00026C06081718168177907E0F068177907C1
:1008B00081F4828193812115310531F0D90113969C
:1008C0009C938E9312972BC09093EE018093ED0131
:1008D00026C04115510519F06417750718F4AB01CE
:1008E000E901DF019F0172816381E72FF62F3097C5
:1008F000C1F64115510501F1481B590B4430510512
:1009000080F412968D919C911397209719F09B83F8
:100910008A8304C09093EE018093ED01FD0132962D
:1009200046C0FD01E40FF51F819391934250504062
:1009300011965C934E933BC02091EB013091EC01FA
:100940002115310541F420918E0130918F013093B2
:10095000EC012093EB012091900130919101211540
:10096000310541F42DB73EB740918C0150918D0176
:10097000241B350BE091EB01F091EC01E217F3073A
:10098000A0F42E1B3F0B2817390778F0AC014E5FFF
:100990005F4F2417350748F04E0F5F1F5093EC014F
:1009A0004093EB018193919302C0E0E0F0E0CF012E
:1009B000DF91CF910895CF93DF93009709F491C011
:1009C000FC013297138212826091ED017091EE0169
:1009D0006115710581F420813181280F391F8091C3
:1009E000EB019091EC018217930799F5F093EC01DC
:1009F000E093EB0176C0DB0180E090E002C0CD0126
:100A0000D901AE17BF0748F412962D913C91139768
:100A100021153105A1F7CD0121C0B383A283EF01D8
:100A2000499159919E01240F351FA217B30779F4FC
:100A30002D913C911197240F351F2E5F3F4F31832D
:100A4000208312962D913C91139733832283009734
:100A500029F4F093EE01E093ED0143C0DC0113961D
:100A6000FC93EE9312974D915D91A40FB51FEA1779
:100A7000FB0769F420813181240F351F2E5F3F4F22
:100A8000EC0139832883228133813B832A83E0E090
:100A9000F0E002C0FB01BC01DB0112968D919C913C
:100AA00013970097B9F79B012E5F3F4F8D919C9153
:100AB0001197820F931F4091EB015091EC01481761
:100AC000590779F4309729F41092EE011092ED0154
:100AD00002C013821282225030403093EC012093E6
:100AE000EB01DF91CF910895A0E0B0E0EAE7F5E0F7
:100AF0000C9443089E01275F3F4F8D819E816F813B
:100B00007885A9010E94AC052096E2E00C945F086C
:100B1000EF92FF920F931F93CF93DF937C01EB0132
:100B20008B8181FF11C000E010E008C0E885F985E5
:100B3000BE010995009711F00FEF1FEFF7018191AA
:100B40007F01882399F702C00FEF1FEFC801CDB7CF
:100B5000DEB7E6E00C945B08ACE0B0E0E2EBF5E079
:100B60000C9433086C011B018A01FC011782168268
:100B7000838181FFD1C12E010894411C511CF601D3
:100B80009381F10193FD859193FF81911F0188234A
:100B900009F4BEC1853239F493FD859193FF8191AB
:100BA0001F01853229F490E0B6010E94A907E7CF22
:100BB000EE24FF2420E02032B0F48B3269F08C3236
:100BC00028F4803251F0833271F40BC08D3239F049
:100BD000803349F421602CC02260246029C0286041
:100BE00027C0206125C027FD2CC0382F30533A3054
:100BF00098F426FF08C08E2D880FE82EEE0CEE0C20
:100C0000E80EE30E15C08F2D880FF82EFF0CFF0C99
:100C1000F80EF30E20620CC08E3221F426FD78C14E
:100C2000206406C08C3611F4206802C0883649F46E
:100C3000F10193FD859193FF81911F01882309F0B4
:100C4000BACF982F9554933018F09052933028F4DF
:100C50000C5F1F4FFFE3F9830DC0833631F08337FC
:100C600071F0833509F060C022C0F801808189836A
:100C70000E5F1F4F420171E0A72EB12C16C062E03B
:100C8000662E712C600E711EF8018080918026FF07
:100C900003C06E2D70E002C06FEF7FEFC4012C87A0
:100CA0000E949E075C0183012C852F7717C052E0BC
:100CB000652E712C600E711EF8018080918026FFD8
:100CC00003C06E2D70E002C06FEF7FEFC4012C8770
:100CD0000E9493075C012C852068830123FD20C0BE
:100CE00008C080E290E0B6012C870E94A907FA9420
:100CF0002C858F2D90E0A816B90698F311C0F40149
:100D000027FD859127FF81914F0190E0B6012C8747
:100D10000E94A9072C85F110FA940894A108B10843
:100D2000A114B10461F7F1C0843611F0893649F598
:100D300027FF08C0F80160817181828193810C5F77
:100D40001F4F09C0F80160817181882777FD809568
:100D5000982F0E5F1F4F4FE6B42EB22297FF09C0A7
:100D600090958095709561957F4F8F4F9F4FF0E8DC
:100D7000BF2AA2012AE030E00E94D507782E74181D
:100D800045C0853731F43FEEB32EB2222AE030E081
:100D900025C099EFB92EB2228F36C1F0803720F4EA
:100DA000883509F0B5C00DC0803721F0883709F0CB
:100DB000AFC002C020E1B22AB4FE0BC084E0B82A62
:100DC00008C0B4FE09C0E6E0BE2A06C028E030E054
:100DD00005C020E130E002C020E132E0B7FE08C0EB
:100DE000F80160817181828193810C5F1F4F07C080
:100DF000F8016081718180E090E00E5F1F4FA201D9
:100E00000E94D507782E7418FFE7BF22B6FE0BC0EC
:100E10002EEFB2227E1438F4B4FE07C0B2FC05C037
:100E20008FEEB82202C0A72C01C0AE2C8B2D90E013
:100E3000B4FE0DC0FE01E70DF11D2081203319F431
:100E4000E9EEBE2209C0A394B2FE06C004C08678B3
:100E50009070009709F0A3948B2C9924B3FC14C0D4
:100E6000B0FE0FC0AF1428F4E72CEF0CEA18AF2C3B
:100E700008C0E72C06C080E290E0B6010E94A907F6
:100E8000A394AF14C0F304C0AF1410F4FA1801C057
:100E9000FF2484FE0FC080E390E0B6010E94A90702
:100EA00082FE1FC081FE03C088E590E010C088E785
:100EB00090E00DC0C40186789070009791F081FC9D
:100EC00002C080E201C08BE2B7FC8DE290E0B60187
:100ED0000E94A90706C080E390E0B6010E94A9071E
:100EE000EA947E14C0F37A94F201E70DF11D80813B
:100EF00090E0B6010E94A9077720A9F706C080E21A
:100F000090E0B6010E94A907FA94FF20C1F737CEFE
:100F1000F6012681378102C02FEF3FEFC9012C96E1
:100F2000E2E10C944F08FC01059061507040011003
:100F3000D8F7809590958E0F9F1F0895FC01615002
:100F4000704001900110D8F7809590958E0F9F1FEB
:100F500008950F931F93CF93DF938C01EB018B8147
:100F600081FF1BC082FF0DC02E813F818C819D813E
:100F70002817390764F4E881F9810193F983E8833C
:100F800006C0E885F985802F0995009731F48E8198
:100F90009F8101969F838E8302C00FEF1FEFC801D0
:100FA000DF91CF911F910F910895FA01AA27283060
:100FB00051F1203181F1E8946F936E7F6E5F7F4F26
:100FC0008F4F9F4FAF4FB1E03ED0B4E03CD0670FA2
:100FD000781F891F9A1FA11D680F791F8A1F911DF5
:100FE000A11D6A0F711D811D911DA11D20D009F445
:100FF00068943F912AE0269F11243019305D319387
:10100000DEF6CF010895462F4770405D4193B3E06F
:101010000FD0C9F7F6CF462F4F70405D4A3318F016
:10102000495D31FD4052419302D0A9F7EACFB4E0C7
:10103000A6959795879577956795BA95C9F700977F
:101040006105710508959B01AC010A2E0694579520
:10105000479537952795BA95C9F7620F731F841F77
:10106000951FA01D08952F923F924F925F926F920D
:101070007F928F929F92AF92BF92CF92DF92EF9228
:10108000FF920F931F93CF93DF93CDB7DEB7CA1BA9
:10109000DB0B0FB6F894DEBF0FBECDBF09942A88D4
:1010A000398848885F846E847D848C849B84AA847C
:1010B000B984C884DF80EE80FD800C811B81AA8109
:1010C000B981CE0FD11D0FB6F894DEBF0FBECDBFD4
:0810D000ED010895F894FFCF33
:1010D8005374617274696E672E2E2E0A0D0070614A
:1010E800636B65747320706572207365636F6E64DB
:1010F800203D202564200A000000000300000000B5
:101108002501410100002A72696E672A0A005069A8
:101118007065206E756D626572206D7573742062DE
:101128006520696E2072616E6765203020746F20BB
:10113800350A005041594C4F41445F4C454E475485
:1011480048206D75737420626520696E2072616E27
:101158006765203120746F2033320A002000F501C2
:02116800000085
:00000001FF
