:100000000C9438000C9455000C9455000C94550039
:100010000C9455000C9455000C9455000C9455000C
:100020000C9455000C9455000C9455000C945500FC
:100030000C9455000C9455000C9455000C945500EC
:100040000C9455000C9455000C9455000C945500DC
:100050000C9455000C9455000C9455000C945500CC
:100060000C9455000C9455000C9455000C945500BC
:1000700011241FBECFEFD0E1DEBFCDBF12E0A0E064
:10008000B1E0EAE2FBE002C005900D92A035B107B5
:10009000D9F712E0A0E5B2E001C01D92AF3AB10776
:1000A000E1F70E9457000C9493050C940000EF9226
:1000B000FF920F931F93CF93DF930E94D7006FE1BE
:1000C00071E07093AE026093AD027093AA026093E8
:1000D000A9027093AC026093AB0280E091E00E94B1
:1000E000540584E090E09093A3028093A20280E004
:1000F0000E947A0380E00E94500260E076EB85EB7C
:1001000094EB40E00E94E80260E076EB85EB94EB34
:100110000E94F2028091A2029091A3020E94E60343
:10012000E82EE7017E01F92EE701FF240DE211E040
:1001300030C0635D7E4F4091A2025091A302CE0178
:100140000E941905EE240CC08C0F9D1F6091AB021C
:100150007091AC02FC01808190E00E942805E3943C
:100160008E2D90E02091A2023091A3028217930776
:1001700058F3CE010E941C03823041F46091AB021F
:100180007091AC028AE091E00E9454058091A20235
:10019000F80EF80101900020E9F73197ED52F14097
:1001A0006F2D70E06E177F0720F2FF24F9CF87E6EE
:1001B0008093C40088E18093C10008951F93182F95
:1001C000873049F46091AD027091AE0283EF91E007
:1001D0000E9454050BC08A3019F48DE00E94DE00A5
:1001E0008091C00085FFFCCF1093C60080E090E0B6
:1001F0001F910895EF92FF920F931F93CF93DF9378
:10020000EC018091500290915102009709F0A1C039
:1002100002E512E08091C00087FFFCCF8091C00012
:1002200084FDA8C08091C00083FDA7C08091C60056
:100230008D3011F08A3069F48AE0F8018083BE01C4
:100240000E94DE0082E592E090935102809350027A
:1002500080C0893009F480E2982F90529F3510F0C9
:10026000803A68F0F2E0013A1F0711F487E003C01A
:10027000F80181938F01BE010E94DE00CBCF823155
:1002800039F1833130F4833009F477C0883011F6C6
:100290000AC0873131F08F3731F0853109F0BACF9C
:1002A00038C0780148C0F2E002351F0709F008F4B1
:1002B000B1CF88E0BE010E94DE0080E2BE010E9454
:1002C000DE0088E0BE010E94DE0001501040A2CF97
:1002D0008DE0BE010E94DE0082E5E82E82E0F82E6D
:1002E00006C0F70181917F01BE010E94DE00E01689
:1002F000F106B8F38FCF88E0BE010E94DE0080E2F5
:10030000BE010E94DE0088E0BE010E94DE000150B6
:100310001040F2E002351F0709F068F77BCF88E054
:10032000BE010E94DE0080E2BE010E94DE0088E085
:10033000BE010E94DE00870182E5E81682E0F80631
:1003400009F008F467CFF70182917F01803239F715
:1003500061CFE0915002F09151022191F09351024E
:10036000E09350022A3021F4109251021092500270
:1003700030E005C02EEF3FEF02C02FEF3FEFC90185
:10038000DF91CF911F910F91FF90EF9008958130F1
:1003900011F42C9A0895882309F42C98089581303B
:1003A00011F42A9A0895882309F42A9808958EBD95
:1003B0000DB407FEFDCF8EB50895FF920F931F93E6
:1003C000CF93DF938C0180E00E94CF0180E00E94F8
:1003D000C70181E60E94D7018EB58093A402FF2455
:1003E00008C080E00E94D7018EB5C00FD11F88835E
:1003F000F394CF2DD0E08091A2029091A302C81770
:10040000D90778F381E00E94C70181E00E94CF0103
:100410008091A40290E08E70907095958795DF9101
:10042000CF911F910F91FF9008951F93182F88511E
:10043000843098F01E3188F480E00E94C701812F3B
:100440000E94D7018EB58093A40280E00E94D7015C
:1004500081E00E94C7018EB501C08FEF1F91089502
:100460001F93DF93CF930F92CDB7DEB7182F80E0A5
:1004700069830E94C701812F80620E94D701698130
:10048000862F0E94D70181E00E94C7010F90CF9173
:10049000DF911F910895682F85E00E943002089532
:1004A0000F931F93082F80E00E941502182F00233E
:1004B00049F480E00E94CF01612F6E7F80E00E94AE
:1004C000300208C0682F616080E00E94300281E045
:1004D0000E94CF0187E092E00197F1F700C0000091
:1004E0001F910F9108950F931F93082F863038F0B6
:1004F0006091AB027091AC028BEF91E00FC0209144
:10050000A2023091A302215030402032310548F040
:100510006091AB027091AC0280E292E00E945405BF
:100520002AC082E00E941502182F0330A1F0043087
:1005300028F4013051F0023029F40AC0043071F07F
:10054000053079F0116081E10EC0126082E10BC0CC
:10055000146083E108C0186084E105C0106185E182
:1005600002C0106286E16091A2020E94300282E025
:10057000612F0E9430021F910F9108950F931F93D6
:10058000CF93DF93182F062F80E00E94C701812FA1
:1005900080620E94D7018EB58093A402802F0E94B2
:1005A000D701C02FD0E080E00E94D701990F880BBF
:1005B000982F0E94D701990F880B982F0E94D7017E
:1005C00081E00E94C701DF91CF911F910F910895A3
:1005D000842F865F423018F40E94BE0208950E9464
:1005E0003002089580E10E94BE02089587E060E72E
:1005F0000E943002089580E00E94C7018FEF0E94A0
:10060000D7018EB58093A40281E00E94C70180913A
:10061000A40208950E94FB028091A40285FF04C0F9
:100620000E94F60281E0089584FF04C00E94F60251
:1006300082E0089580E008951F93CF93DF93EC014B
:1006400080E00E94C70180EA0E94D7018093A40243
:1006500010E007C08C0F9D1FFC0180810E94D70114
:100660001F5F812F90E02091A2023091A302821798
:10067000930780F381E00E94C70181E00E94CF01CF
:10068000F5E3FA95F1F7000087E092E00197F1F7C2
:1006900000C000000E940A03813019F08230D1F7B7
:1006A00001C081E0DF91CF911F9108950E94FB026C
:1006B0009091A4029E7081E09E3009F480E008953C
:1006C00080E00E94C70181EE0E94D7018EB5809321
:1006D000A40281E00E94C701089580E00E94C70142
:1006E00082EE0E94D7018EB58093A40281E00E9421
:1006F000C70108951F93182F2091A2023091A302E1
:10070000215030402032310548F06091AB027091A9
:10071000AC0280E292E00E9454054AC084EB84B9A6
:1007200080E58CBD80E00E94CF018FEF91EEA4E0C8
:1007300081509040A040E1F700C0000083E062E0FB
:100740000E94300285E060E00E94300286E06EE0A8
:100750000E94300281E16091A2020E94300282E197
:100760006091A2020E9430028DE160E00E9430029E
:100770008CE160E00E943002113019F481E06FE3F7
:1007800002C081E060E00E94300280E06BE00E94E5
:1007900030020E94F6020E9460030E946D03AFE1E6
:1007A000BEE41197F1F700C0000081E00E94CF0184
:1007B0001F9108950E94FB028091A40286FF04C04D
:1007C0000E94F60281E0089580E00895CF93DF93C0
:1007D0008230910510F482E090E0E091A702F09160
:1007E000A80240E050E020E030E026C06081718146
:1007F00068177907E0F06817790781F4828193819F
:100800002115310531F0D90113969C938E931297DF
:100810002BC09093A8028093A70226C041155105D2
:1008200019F06417750718F4AB01E901DF019F01A6
:1008300072816381E72FF62F3097C1F6411551057C
:1008400001F1481B590B4430510580F412968D91EB
:100850009C911397209719F09B838A8304C09093EF
:10086000A8028093A702FD01329646C0FD01E40F65
:10087000F51F819391934250504011965C934E9393
:100880003BC02091A5023091A6022115310541F40B
:1008900020914B0230914C023093A6022093A50286
:1008A00020914D0230914E022115310541F42DB7B2
:1008B0003EB74091490250914A02241B350BE0910A
:1008C000A502F091A602E217F307A0F42E1B3F0B3E
:1008D0002817390778F0AC014E5F5F4F24173507B2
:1008E00048F04E0F5F1F5093A6024093A5028193DC
:1008F000919302C0E0E0F0E0CF01DF91CF91089545
:10090000CF93DF93009709F491C0FC0132971382D3
:1009100012826091A7027091A8026115710581F49D
:1009200020813181280F391F8091A5029091A60264
:100930008217930799F5F093A602E093A50276C07B
:10094000DB0180E090E002C0CD01D901AE17BF0706
:1009500048F412962D913C91139721153105A1F77A
:10096000CD0121C0B383A283EF01499159919E012A
:10097000240F351FA217B30779F42D913C911197DD
:10098000240F351F2E5F3F4F3183208312962D9108
:100990003C91139733832283009729F4F093A802A4
:1009A000E093A70243C0DC011396FC93EE931297E9
:1009B0004D915D91A40FB51FEA17FB0769F42081E3
:1009C0003181240F351F2E5F3F4FEC01398328837F
:1009D000228133813B832A83E0E0F0E002C0FB0107
:1009E000BC01DB0112968D919C9113970097B9F78A
:1009F0009B012E5F3F4F8D919C911197820F931F0A
:100A00004091A5025091A6024817590779F43097F2
:100A100029F41092A8021092A70202C01382128237
:100A2000225030403093A6022093A502DF91CF914F
:100A30000895FB01DC014150504048F001900D92B7
:100A40000020C9F701C01D9241505040E0F70895C1
:100A50000F931F93CF93DF938C01EB018B8181FF69
:100A60001BC082FF0DC02E813F818C819D81281784
:100A7000390764F4E881F9810193F983E88306C0BA
:100A8000E885F985802F0995009731F48E819F8143
:100A900001969F838E8302C00FEF1FEFC801DF9185
:100AA000CF911F910F910895EF92FF920F931F9393
:100AB000CF93DF937C01EB018B8181FF11C000E0BC
:100AC00010E008C0E885F985BE010995009711F08E
:100AD0000FEF1FEFF70181917F01882399F702C083
:100AE0000FEF1FEFC801CDB7DEB7E6E00C94840529
:100AF0002A88398848885F846E847D848C849B84AE
:100B0000AA84B984C884DF80EE80FD800C811B81BB
:100B1000AA81B981CE0FD11D0FB6F894DEBF0FBEEA
:0A0B2000CDBFED010895F894FFCF5A
:100B2A007374617274696E670A007472616E736DB0
:100B3A00697373696F6E206661696C65640A000087
:100B4A0000000300000000DE00FA0000005468659F
:100B5A0020707572706F7365206F66207468697390
:100B6A0020636F7572736520697320746F20656ED8
:100B7A0061626C652073747564656E747320746F3A
:100B8A00206361727279206F757420736F7068695F
:100B9A0073746963617465642064657369676E73ED
:100BAA00206F6620746865206D6F6465726E2064BC
:100BBA0069676974616C2073797374656D732077E2
:100BCA0068696368206E6F77206170706561722052
:100BDA00696E2070726F64756374732073756368CD
:100BEA00206173206175746F6D6F62696C65732C17
:100BFA00206170706C69616E63657320616E642038
:100C0A00696E647573747269616C20746F6F6C734A
:100C1A002E0A002A72696E672A0A005069706520D6
:100C2A006E756D626572206D7573742062652069D8
:100C3A006E2072616E6765203020746F20350A005D
:100C4A005041594C4F41445F4C454E475448206DE2
:100C5A0075737420626520696E2072616E67652003
:100C6A003120746F2033320A002000AF02000000E6
:00000001FF
