:100000000C9438000C9455000C9455000C94550039
:100010000C9455000C9455000C9455000C9455000C
:100020000C9455000C9455000C9455000C945500FC
:100030000C9455000C9455000C9455000C945500EC
:100040000C9455000C9455000C9455000C945500DC
:100050000C9455000C9455000C9455000C945500CC
:100060000C9455000C9455000C9455000C945500BC
:1000700011241FBECFEFD0E1DEBFCDBF11E0A0E065
:10008000B1E0EAE5FAE002C005900D92A437B107AD
:10009000D9F711E0A4E7B1E001C01D92A33DB1077B
:1000A000E1F70E9457000C942B050C940000CF93AD
:1000B000DF9381E090E09093C7018093C60180E0D8
:1000C0000E94860360E076EC85EC94EC40E00E94B0
:1000D000940261E076EC85EC94EC41E00E9494029D
:1000E00062E076EC85EC94EC42E00E94940263E0DE
:1000F00076EC85EC94EC43E00E94940264E076ECAC
:1001000085EC94EC44E00E94940265E076EC85EC8A
:1001100094EC45E00E94940280E00E943A0381E062
:100120000E943A0382E00E943A0383E00E943A036D
:1001300084E00E943A0385E00E943A03239A0E94D9
:10014000CC006AE071E07093D2016093D1017093AA
:10015000CE016093CD017093D0016093CF0181E017
:1001600085BD10926E0083EC84BD80E887BD80E081
:1001700091E00E94E7048091C6019091C7010E941E
:10018000E203EC010E9403038130E1F7CE010E94FB
:10019000C801888187BDF6CF87E68093C40088E1D7
:1001A0008093C10008951F93182F873049F4609100
:1001B000D1017091D20188E191E00E94E7040BC067
:1001C0008A3019F48DE00E94D3008091C00085FF31
:1001D000FCCF1093C60080E090E01F910895EF924D
:1001E000FF920F931F93CF93DF937C018091740153
:1001F00090917501892B09F09FC006E711E080916D
:10020000C00087FFFCCF8091C00084FF03C02EEFA9
:100210003FEFA6C08091C00083FDA0C09091C600B2
:100220009D3011F09A3069F48AE0F8018083B701BB
:100230000E94D30086E791E090937501809374014A
:100240007BC0993009F490E2892F80528F3510F0ED
:10025000903A70F0F1E0053C1F0711F487E004C00C
:10026000F80191938F01892FB7010E94D300C7CF66
:10027000923139F1933138F4933009F46FC09830EA
:1002800009F0BDCF09C0973109F44BC09F3721F069
:10029000953109F0B4CF32C0F1E006371F0709F0FD
:1002A00008F4ADCF88E0B7010E94D30080E2B70127
:1002B0000E94D30088E0B7010E94D3000150104093
:1002C0009ECF8DE0B7010E94D300C6E7D1E004C005
:1002D0008991B7010E94D300C017D107C8F38FCF0F
:1002E00088E0B7010E94D30080E2B7010E94D300EA
:1002F00088E0B7010E94D3000150104081E006372A
:10030000180709F068F77BCF88E0B7010E94D30097
:1003100080E2B7010E94D30088E0B7010E94D300B9
:100320008E01E1E006371E0709F008F468CFE80106
:100330008A91803249F763CFE0917401F0917501A1
:100340008191F0937501E09374018A3021F4109249
:10035000750110927401282F30E002C02FEF3FEF9B
:10036000C901DF91CF911F910F91FF90EF900895F8
:10037000813011F42C9A0895882309F42C9808955B
:10038000813011F42A9A0895882309F42A9808954F
:10039000CF93DF93EC0180E00E94C00180E00E94D7
:1003A000B80181E68EBD0DB407FEFDCF8EB58EB5CA
:1003B0008093C80120E00AC01EBC0DB407FEFDCF2B
:1003C0008EB58EB5EC0FFD1F80832F5FE22FF0E01E
:1003D0008091C6019091C701E817F90768F381E0A1
:1003E0000E94B80181E00E94C0018091C80190E0A4
:1003F0008E70907095958795DF91CF9108958EBD01
:100400000DB407FEFDCF8EB508951F93182F8851A8
:100410008430B8F01E31A8F480E00E94B8011EBDFF
:100420000DB407FEFDCF8EB58EB58093C8011EBCFE
:100430000DB407FEFDCF8EB581E00E94B8018EB5E8
:1004400001C08FEF1F9108950F931F93182F062F50
:1004500080E00E94B80110621EBD0DB407FEFDCF02
:100460008EB50EBD0DB407FEFDCF8EB581E00E94A6
:10047000B8011F910F910895682F85E00E94240212
:1004800008950F931F93182F80E00E940502082FF4
:10049000112349F480E00E94C0010E7F80E0602FAC
:1004A0000E94240208C0016080E0602F0E942402A4
:1004B00081E00E94C00188E092E00197F1F71F916E
:1004C0000F9108950F931F93182F062F80E00E941D
:1004D000B80110621EBD0DB407FEFDCF8EB58EB5FE
:1004E0008093C8010EBD0DB407FEFDCF8EB5602F01
:1004F00070E01EBC0DB407FEFDCF8EB5990F880BC2
:10050000982F8EBD0DB407FEFDCF8EB5990F880BC9
:10051000982F8EBD0DB407FEFDCF8EB581E00E94F1
:10052000B8011F910F910895842F865F423018F40F
:100530000E94620208950E942402089580E10E94B0
:100540006202089587E060E70E942402089580E037
:100550000E94B8018FEF8EBD0DB407FEFDCF8EB5A2
:100560008EB58093C80181E00E94B8018091C801D6
:1005700008950E94A7028091C80185FF04C00E94CF
:10058000A20281E0089584FD02C080E008950E94E7
:10059000A20282E00895CF93DF93EC0180E00E94F5
:1005A000B80180EA8EBD0DB407FEFDCF8EB58093F5
:1005B000C8012091C6013091C70190E009C0EC0F3D
:1005C000FD1F80818EBD0DB407FEFDCF8EB59F5FF0
:1005D000E92FF0E0E217F30790F381E00E94B80101
:1005E00081E00E94C00185E38A95F1F788E092E0FE
:1005F0000197F1F70E94B902813011F08230D1F7F2
:10060000DF91CF9108950E94A70290E08091C801E8
:100610008E708E3009F091E0892F089580E00E945D
:10062000B80181EE8EBD0DB407FEFDCF8EB58EB53F
:100630008093C80181E00E94B801089580E00E9483
:10064000B80182EE8EBD0DB407FEFDCF8EB58EB51E
:100650008093C80181E00E94B80108950E94A7021A
:100660008091C80186FD02C080E008950E94A20228
:1006700081E008950F931F93182F863038F0609112
:10068000CF017091D00180E291E00DC08091C60150
:100690009091C7010197809748F06091CF017091C8
:1006A000D00185E491E00E94E7042DC082E00E9421
:1006B0000502082F1230A1F0133028F4112351F055
:1006C0001130E9F40AC0143089F0143060F01530AC
:1006D000B1F40FC0016081E10EC0026082E10BC085
:1006E000046083E108C0086084E105C0006185E121
:1006F00002C0006286E16091C6010E94240282E08D
:10070000602F0E9424021F910F9108951F93182FAC
:100710008091C6019091C7010197809748F0609140
:10072000CF017091D00185E491E00E94E70448C0B8
:1007300084EB84B980E58CBD80E00E94C00188EE26
:1007400093E020E931E0F9013197F1F70197D9F70A
:1007500083E062E00E94240285E060E00E942402BF
:1007600086E06EE00E94240281E16091C6010E9451
:10077000240282E16091C6010E9424028DE160E0C2
:100780000E9424028CE160E00E942402113019F4DE
:1007900081E06FE302C081E060E00E94240280E01B
:1007A0006BE00E9424020E94A2020E940E030E949B
:1007B0001E0380E29EE40197F1F781E00E94C001F0
:1007C0001F910895CF93DF93BC018230910510F4FF
:1007D00062E070E0A091CB01B091CC01ED01E0E0CE
:1007E000F0E040E050E021C08881998186179707AA
:1007F00069F48A819B81309719F09383828304C0C6
:100800009093CC018093CB01FE0134C06817790727
:1008100038F44115510519F08417950708F4AC0117
:10082000FE018A819B819C01E9012097E9F641152F
:100830005105A9F1CA01861B970B049708F4BA0168
:10084000E0E0F0E02AC08D919C9111978417950704
:10085000F9F46417750781F412968D919C911397A2
:10086000309719F09383828304C09093CC018093D6
:10087000CB01FD0132964FC0CA01861B970BFD01CB
:10088000E80FF91F6193719302978D939C9343C076
:10089000FD01828193819C01D9011097A1F680917D
:1008A000C9019091CA01892B41F480917001909106
:1008B00071019093CA018093C901409172015091D6
:1008C00073014115510541F44DB75EB780916E013A
:1008D00090916F01481B590B2091C9013091CA01B9
:1008E00024173507B0F4CA01821B930B86179707AC
:1008F00080F0AB014E5F5F4F8417950750F0420FB9
:10090000531F5093CA014093C901F9016193719338
:1009100002C0E0E0F0E0CF01DF91CF910895CF93E6
:10092000DF93009709F450C0EC0122971B821A82D2
:10093000A091CB01B091CC01109709F140E050E0BB
:10094000AC17BD0708F1BB83AA83FE012191319149
:10095000E20FF31FAE17BF0779F48D919C911197A9
:10096000280F391F2E5F3F4F3983288312968D91B0
:100970009C9113979B838A834115510571F4D09301
:10098000CC01C093CB0120C012968D919C911397FE
:10099000AD01009711F0DC01D3CFFA01D383C283FC
:1009A00021913191E20FF31FCE17DF0769F488819F
:1009B0009981280F391F2E5F3F4FFA013183208321
:1009C0008A819B8193838283DF91CF910895EF92F7
:1009D000FF920F931F93CF93DF937C018B01DB0179
:1009E00013968C9181FD03C0CFEFDFEF13C0C0E001
:1009F000D0E00BC0D8011896ED91FC911997B80181
:100A00000995892B11F0CFEFDFEFF70181917F017D
:100A1000882381F7CE01CDB7DEB7E6E00C941C0544
:100A20002A88398848885F846E847D848C849B847E
:100A3000AA84B984C884DF80EE80FD800C811B818C
:100A4000AA81B981CE0FD11D0FB6F894DEBF0FBEBB
:0A0A5000CDBFED010895F894FFCF2B
:100A5A007374617274696E670A0000000003000013
:100A6A000000D300EF0000002A72696E672A0A00AC
:100A7A0050697065206E756D626572206D7573744C
:100A8A0020626520696E2072616E6765203020746D
:100A9A006F20350A005041594C4F41445F4C454E36
:100AAA00475448206D75737420626520696E207200
:100ABA00616E6765203120746F2033320A0020008E
:040ACA00D301000054
:00000001FF
