:100000000C9447000C9464000C9464000C946400FD
:100010000C9464000C9464000C9464000C946400D0
:100020000C9464000C9464000C9464000C946400C0
:100030000C9464000C9466000C9464000C946400AE
:100040000C9464000C9464000C9464000C946400A0
:100050000C9464000C9464000C9464000C94640090
:100060000C9464000C9464000C9464000C94640080
:1000700005A84CCDB2D44EB93836A9020C50B9916E
:100080008688083CA6AAAA2ABE000000803F112448
:100090001FBECFEFD0E1DEBFCDBF12E0A0E0B1E0E8
:1000A000E8E1FAE102C005900D92AA37B107D9F74D
:1000B00013E0AAE7B2E001C01D92AA3FB107E1F741
:1000C0000E9493010C940A0D0C9400001F920F9251
:1000D0000FB60F9211242F933F934F935F936F931B
:1000E0007F938F939F93EF93FF931092B20081E0E1
:1000F0008093B1008091EA039091EB03882309F08B
:100100003FC08091DE029091DF022091DE023091AB
:10011000DF024091D10202C0369527954A95E2F759
:10012000821B930B9093DF028093DE028091E203A7
:100130009091E3032091E2033091E3034091CE02DA
:1001400002C0369527954A95E2F7821B930B909350
:10015000E3038093E2038091D3029091D402209133
:10016000D3023091D4024091EF0302C03695279517
:100170004A95E2F7821B930B9093D4028093D302AB
:100180002091E2033091E3038FEF9FE7AC01421B24
:10019000530B5093EE034093ED034091ED035091C8
:1001A000EE036091DE027091DF02672F7727452F03
:1001B0005527649F9001659F300D749F300D112469
:1001C0003093E8032093E7032091D2022130D1F449
:1001D0009093DF028093DE029093E3038093E20327
:1001E0001092EE031092ED039093D4028093D30209
:1001F0001092DC021092DB021092D0021092CF0219
:100200001092D2022091DB023091DC028091E40353
:100210009091E503820F931F9093DC028093DB02A1
:100220008091DB029091DC029093F003E091F00367
:10023000F0E0EE51FD4F60816093DD024091CF020E
:100240005091D0028091D7029091D8022091D30290
:100250003091D402E091D502840F951F772767FD76
:10026000709502C036952795EA95E2F7629FA00146
:10027000639F500D729F500D1124840F951F909312
:10028000D0028093CF028091CF029091D0029093C0
:10029000E9032091E7033091E803E091E903F0E0FE
:1002A000EE51FD4F4081552747FD5095232F3327B1
:1002B000429FC001439F900D529F900D1124880FC3
:1002C000892F881F990B9195805887BD8091EA03EB
:1002D0009091EB0301969093EB038093EA03809156
:1002E000F1039091F2038330910548F48091F1037A
:1002F0009091F20301969093F2038093F103109290
:10030000B10087B580937A02FF91EF919F918F9111
:100310007F916F915F914F913F912F910F900FBE01
:100320000F901F9018950F931F93CF93DF9381E049
:1003300090E09093DA028093D90280E00E94FC045E
:1003400080E00E94D20360E076EC85EC94EC40E023
:100350000E946A0460E076EC85EC94EC0E947404E0
:10036000239A0E9459026EE071E07093F903609342
:10037000F8037093F5036093F4037093F7036093AD
:10038000F60380E091E00E94510B02EE12E0C0E023
:10039000D0E01FC0BE0180E090E00E94B80826E5D2
:1003A0003EE049EC50E40E943C0720E030E040E8A9
:1003B0005BE30E943C070E94750B20E030E04EEFAB
:1003C00052E40E943C070E946805F80161938F0186
:1003D0002196CF3FD105F1F2E8F2D093E102C0932C
:1003E000E0021092EB031092EA0341E045BD109247
:1003F0006E0083EC84BD80E887BD8FEC97E090931E
:1004000089008093880082E080936F0039E0309308
:1004100081001092800078948AE598E09093D80249
:100420008093D70225E02093D1024093CE0283E34C
:100430009BE09093E5038093E4033093D5022093EF
:10044000EF0301E08091EA039091EB03883C910572
:10045000B0F0309908C08091E603882321F400931E
:10046000D2020093E603309B06C08091E603882306
:1004700011F01092E6031092EB031092EA038091C0
:10048000F1039091F20383309105E0F290917A02AA
:1004900080917B02981741F08AE792E00E949E04C7
:1004A00080917A0280937B021092F2031092F10302
:1004B000C9CF87E68093C40088E18093C100089586
:1004C0001F93182F873049F46091F8037091F90356
:1004D0008CE191E00E94510B0BC08A3019F48DE041
:1004E0000E9460028091C00085FFFCCF1093C6007F
:1004F00080E090E01F910895EF92FF920F931F9379
:10050000CF93DF93EC0180917C0290917D02009764
:1005100009F0A1C00EE712E08091C00087FFFCCF78
:100520008091C00084FDA8C08091C00083FDA7C059
:100530008091C6008D3011F08A3069F48AE0F801AC
:100540008083BE010E9460028EE792E090937D025C
:1005500080937C0280C0893009F480E2982F905209
:100560009F3510F0803A68F0F2E00D3C1F0711F45F
:1005700087E003C0F80181938F01BE010E946002F1
:10058000CBCF823139F1833130F4833009F477C035
:10059000883011F60AC0873131F08F3731F085315C
:1005A00009F0BACF38C0780148C0F2E00E371F0713
:1005B00009F008F4B1CF88E0BE010E94600280E239
:1005C000BE010E94600288E0BE010E9460020150EC
:1005D0001040A2CF8DE0BE010E9460028EE7E82E9F
:1005E00082E0F82E06C0F70181917F01BE010E94D2
:1005F0006002E016F106B8F38FCF88E0BE010E94DA
:10060000600280E2BE010E94600288E0BE010E949A
:10061000600201501040F2E00E371F0709F068F742
:100620007BCF88E0BE010E94600280E2BE010E9492
:10063000600288E0BE010E94600287018EE7E81632
:1006400082E0F80609F008F467CFF70182917F0194
:10065000803239F761CFE0917C02F0917D022191E7
:10066000F0937D02E0937C022A3021F410927D0207
:1006700010927C0230E005C02EEF3FEF02C02FEF5A
:100680003FEFC901DF91CF911F910F91FF90EF9044
:100690000895813011F42C9A0895882309F42C9838
:1006A0000895813011F42A9A0895882309F42A982C
:1006B00008958EBD0DB407FEFDCF8EB50895FF924F
:1006C0000F931F93CF93DF938C0180E00E9451031F
:1006D00080E00E94490381E60E9459038EB5809311
:1006E000F303FF2408C080E00E9459038EB5C00FB9
:1006F000D11F8883F394CF2DD0E08091D9029091BF
:10070000DA02C817D90778F381E00E94490381E033
:100710000E9451038091F30390E08E709070959544
:100720008795DF91CF911F910F91FF9008951F93AF
:10073000182F8851843098F01E3188F480E00E9490
:100740004903812F0E9459038EB58093F30380E003
:100750000E94590381E00E9449038EB501C08FEFCA
:100760001F9108951F93DF93CF930F92CDB7DEB7FC
:10077000182F80E069830E944903812F80620E94C4
:1007800059036981862F0E94590381E00E94490321
:100790000F90CF91DF911F910895682F85E00E94FF
:1007A000B20308950F931F93082F80E00E949703D0
:1007B000182F002349F480E00E945103612F6E7FBF
:1007C00080E00E94B20308C0682F616080E00E9450
:1007D000B20381E00E94510387E092E00197F1F7B4
:1007E00000C000001F910F9108950F931F93082FD1
:1007F000863038F06091F6037091F70384E291E05F
:100800000FC02091D9023091DA02215030402032BD
:10081000310548F06091F6037091F70389E491E0A7
:100820000E94510B2AC082E00E949703182F0330C8
:10083000A1F0043028F4013051F0023029F40AC04C
:10084000043071F0053079F0116081E10EC0126062
:1008500082E10BC0146083E108C0186084E105C028
:10086000106185E102C0106286E16091D9020E94A8
:10087000B20382E0612F0E94B2031F910F9108958D
:100880000F931F93CF93DF93182F062F80E00E94C2
:100890004903812F80620E9459038EB58093F30330
:1008A000802F0E945903C02FD0E080E00E9459039E
:1008B000990F880B982F0E945903990F880B982F36
:1008C0000E94590381E00E944903DF91CF911F915B
:1008D0000F910895842F865F423018F40E944004DF
:1008E00008950E94B203089580E10E944004089593
:1008F00087E060E70E94B203089580E00E94490308
:100900008FEF0E9459038EB58093F30381E00E941C
:1009100049038091F30308950E947D048091F303BD
:1009200085FF04C00E94780481E0089584FF04C01C
:100930000E94780482E0089580E008951F93CF9389
:10094000DF93EC0180E00E94490380EA0E94590392
:100950008093F30310E007C08C0F9D1FFC01808182
:100960000E9459031F5F812F90E02091D90230919E
:10097000DA028217930780F381E00E94490381E045
:100980000E945103F5E3FA95F1F7000087E092E049
:100990000197F1F700C000000E948C04813019F02B
:1009A0008230D1F701C081E0DF91CF911F9108958E
:1009B0000E947D049091F3039E7081E09E3009F4C3
:1009C00080E0089580E00E94490381EE0E9459036F
:1009D0008EB58093F30381E00E944903089580E07F
:1009E0000E94490382EE0E9459038EB58093F3035F
:1009F00081E00E94490308951F93182F2091D90286
:100A00003091DA02215030402032310548F06091B7
:100A1000F6037091F70389E491E00E94510B4AC0FC
:100A200084EB84B980E58CBD80E00E9451038FEF98
:100A300091EEA4E081509040A040E1F700C000009A
:100A400083E062E00E94B20385E060E00E94B203AE
:100A500086E06EE00E94B20381E16091D9020E94BB
:100A6000B20382E16091D9020E94B2038DE160E09D
:100A70000E94B2038CE160E00E94B203113019F4CD
:100A800081E06FE302C081E060E00E94B20380E099
:100A90006BE00E94B2030E9478040E94E2040E946C
:100AA000EF04AFE1BEE41197F1F700C0000081E070
:100AB0000E9451031F9108950E947D048091F303C9
:100AC00086FF04C00E94780481E0089580E00895C4
:100AD000EF92FF920F931F937B018C0120E030E097
:100AE00040E05FE40E94360887FD11C0C801B701ED
:100AF00020E030E040E05FE40E940B070E946608BF
:100B00009B01AC01205030404040504806C0C80115
:100B1000B7010E9466089B01AC01B901CA011F918F
:100B20000F91FF90EF900895A0E0B0E0EAE9F5E0C2
:100B30000C941E0BFC01EA018081823008F438C15C
:100B4000DB019C91923008F430C1843059F4943028
:100B500009F02EC1918111968C911197981709F087
:100B600021C126C1943009F420C19230B1F4823001
:100B700009F01EC1CA01AF0128E0DA010D90AD01F4
:100B8000DC010D92CD012150C1F7DB0111968C9152
:100B900011979181892389830AC1823009F405C1A3
:100BA000C280D380DB0112966D907C9013972481D4
:100BB0003581468157811496ED90FD900D911C91E1
:100BC0001797C601861997095C0197FF04C0AA24EC
:100BD000BB24A81AB90AB0E2AB16B1040CF061C08C
:100BE000181619066CF5370148010A2C04C09694B2
:100BF0008794779467940A94D2F781E090E0A0E01C
:100C0000B0E00A2C04C0880F991FAA1FBB1F0A94CA
:100C1000D2F70197A109B1098E219F21A023B12309
:100C2000EE24FF248701E3940097A105B10519F490
:100C3000EE24FF248701E628F728082919293CC05B
:100C40000097D1F1CA0CDB1C39014A010A2C04C0FF
:100C500096948794779467940A94D2F781E090E011
:100C6000A0E0B0E00A2C04C0880F991FAA1FBB1F88
:100C70000A94D2F70197A109B10982239323A423EF
:100C8000B52321E030E040E050E00097A105B10538
:100C900019F420E030E0A9012629372948295929EB
:100CA0000BC06C147D0424F4EE24FF24870104C0DF
:100CB000630120E030E0A9018181FB019181891766
:100CC00009F445C0882349F0D801C701821B930B62
:100CD000A40BB50B9C01AD0104C02E193F09400BBC
:100CE000510B57FD04C01982DB82CA820BC081E020
:100CF0008983DB82CA8250954095309521953F4F7C
:100D00004F4F5F4F2C833D834E835F830DC0880F11
:100D1000991FAA1FBB1F8C839D83AE83BF838A81CB
:100D20009B8101979B838A838C819D81AE81BF814A
:100D30009C01AD0121503040404050402F3FEFEF2B
:100D40003E07EFEF4E07EFE35E0708F30BC0898322
:100D5000DB82CA822E0D3F1D401F511F2C833D8315
:100D60004E835F8383E088832C813D814E815F8148
:100D700057FF1DC0DA01C90181709070A070B0707A
:100D80005695479537952795822B932BA42BB52BFA
:100D90008C839D83AE83BF838A819B8101969B83D5
:100DA0008A8305C0E2E7F1E003C0FB0101C0FE0158
:100DB000CF01CDB7DEB7EEE00C943A0BA0E2B0E085
:100DC000E4EEF6E00C94260B69837A838B839C8394
:100DD0002D833E834F83588789E0E82EF12CEC0E5B
:100DE000FD1ECE010196B7010E94580A8E010F5ECA
:100DF0001F4FCE010596B8010E94580AC701B801DD
:100E0000AE01475E5F4F0E9494050E948A09A0963A
:100E1000E6E00C94420BA0E2B0E0E1E1F7E00C94D4
:100E2000260B69837A838B839C832D833E834F8338
:100E300058878E01075F1F4FCE010196B8010E94AF
:100E4000580A91E1E92EF12CEC0EFD1ECE0105961B
:100E5000B7010E94580A8A8991E089278A8BC801C4
:100E6000B701AE01475E5F4F0E9494050E948A0958
:100E7000A096E6E00C94420BA0E2B0E0E2E4F7E0DA
:100E80000C941A0B69837A838B839C832D833E8316
:100E90004F835887CE010196BE01675F7F4F0E9446
:100EA000580ACE010596BE016F5E7F4F0E94580A18
:100EB0009985923078F089898230C0F0943019F4A5
:100EC000823041F4CBC0843019F4923079F4C6C03A
:100ED000923051F481E02A859A89291709F480E03B
:100EE0008A87CE010996BCC0823051F481E02A8500
:100EF0009A89291709F480E08A8BCE014196B0C007
:100F00006D847E848F849888ED88FE880F89188D83
:100F1000E0E2F0E080E090E0DC01AA24BB2465017F
:100F200020E030E0A901B3016170707061157105B6
:100F3000D1F02E0D3F1D401F511F15012601280E17
:100F4000391E4A1E5B1E81E090E0A0E0B0E02E1545
:100F50003F054007510718F080E090E0DC01820D6A
:100F6000931DA41DB51DAA0CBB1CCC1CDD1C17FFBA
:100F700009C061E0262E312C412C512CA228B32827
:100F8000C428D528319749F0EE0CFF1C001F111F13
:100F90009694879477946794C6CF6B897C89EB8508
:100FA000FC856E0F7F1F6E5F7F4F7C8F6B8F61E0C4
:100FB000EA857A89E71709F460E06A8F6B8D7C8D8A
:100FC00010C0FC01E170F070309729F056954795FC
:100FD000379527955068B695A795979587956F5F34
:100FE0007F4FB7FDEECF0CC0880F991FAA1FBB1F04
:100FF00057FD8160220F331F441F551F6150704001
:101000008030E0E09E07E0E0AE07E0E4BE0760F37A
:101010006B8F7C8F6FE7E62EF12C012D112DE822CE
:10102000F9220A231B2360E4E616F10401051105E9
:1010300061F487FD0AC0211531054105510529F0EC
:10104000805C9F4FAF4FBF4F80788D8F9E8FAF8F4B
:10105000B8A383E0898FCE01499602C082E791E070
:101060000E948A09A096E2E10C94360BA8E1B0E058
:10107000ECE3F8E00C94260B69837A838B839C83E2
:101080002D833E834F8358878E01075F1F4FCE010C
:101090000196B8010E94580A81E1E82EF12CEC0E6D
:1010A000FD1ECE010596B7010E94580A898582303F
:1010B00040F08989823028F0C801B7010E94C10A36
:1010C00001C08FEF6896E6E00C94420BACE0B0E014
:1010D000ECE6F8E00C942A0B69837A838B839C837B
:1010E000CE010196BE016B5F7F4F0E94580A8D8131
:1010F000823081F1823070F1843021F48E81882336
:1011000069F10AC02F81388537FD24C06E812F31E7
:1011100031053CF0662311F120E030E040E050E87A
:1011200021C08EE190E0821B930B29853A854B8587
:101130005C8504C056954795379527958A95D2F7D3
:10114000662381F050954095309521953F4F4F4F44
:101150005F4F08C020E030E0A90104C02FEF3FEF4F
:101160004FEF5FE7B901CA012C96E2E00C94460B01
:10117000A8E0B0E0EEEBF8E00C94240B7B018C01CE
:101180001A82611571058105910519F482E0898340
:101190005FC083E089838EE1C82ED12CDC82CB82B4
:1011A000ED82FE820F831887C801B7010E943009C3
:1011B000FC013197F7FF3AC0AA27BB27AE1BBF0B34
:1011C00021E030E040E050E00A2E04C0220F331F3F
:1011D000441F551F0A94D2F72150304040405040E0
:1011E0002E213F214023512361E070E080E090E018
:1011F000211531054105510519F460E070E0CB017E
:1012000004C016950795F794E794AA95D2F7E62AB5
:10121000F72A082B192BED82FE820F8318878EE1A7
:1012200090E08E1B9F0B9C838B8312C0309781F0C4
:101230000E2E04C0EE0CFF1C001F111F0A94D2F7E3
:10124000ED82FE820F831887CE1ADF0ADC82CB8202
:10125000CE0101960E948A092896E8E00C94400B82
:10126000AF92BF92CF92DF92EF92FF920F931F93B4
:101270007B018C0180E0E81680E0F80681E0080739
:1012800080E0180758F4EFEFEE16F10401051105A0
:1012900009F090F480E090E0DC0117C0F0E0EF1678
:1012A000F0E0FF06F0E00F07F1E01F0750F480E1E7
:1012B00090E0A0E0B0E009C088E090E0A0E0B0E0FD
:1012C00004C088E190E0A0E0B0E020E230E040E03F
:1012D00050E0281B390B4A0B5B0B5701680104C017
:1012E000D694C794B794A7948A95D2F7D601C5012E
:1012F00086589E4FFC018081281B31094109510904
:10130000C9011F910F91FF90EF90DF90CF90BF9098
:10131000AF900895EF92FF920F931F93CF93DF93B7
:10132000FC01248135814681578161818081823031
:1013300020F44061EFEFF0E0A3C0843009F49BC0DB
:10134000823009F492C0211531054105510509F497
:101350008FC00280F381E02D8FEFE238F8070CF0A8
:101360005AC0C2E8DFEFCE1BDF0BCA31D1056CF5E6
:1013700079018A010C2E04C016950795F794E7941D
:101380000A94D2F781E090E0A0E0B0E00C2E04C017
:10139000880F991FAA1FBB1F0A94D2F70197A109B2
:1013A000B10982239323A423B52321E030E040E058
:1013B00050E00097A105B10519F420E030E0A90143
:1013C0002E293F29402B512B03C020E030E0A901FA
:1013D000DA01C9018F779070A070B07080349105E8
:1013E000A105B10539F427FF09C0205C3F4F4F4FDD
:1013F0005F4F04C0215C3F4F4F4F5F4FE1E0F0E093
:10140000203080E0380780E0480780E4580728F55E
:10141000E0E0F0E022C0E038F1056CF5E158FF4F64
:10142000DA01C9018F779070A070B0708034910597
:10143000A105B10539F427FF09C0205C3F4F4F4F8C
:101440005F4F04C0215C3F4F4F4F5F4F57FF05C0B8
:101450005695479537952795319687E05695479548
:10146000379527958A95D1F70BC0E0E0F0E005C0ED
:10147000E0E0F0E005C0EFEFF0E020E030E0A901AF
:101480008E2F879588278795942F9F776795662756
:101490006795E695E22EA92FA82BFE2FF62B622F3B
:1014A000732F8A2F9F2FCDB7DEB7E6E00C94420B47
:1014B000DC01FB012C9111963C91119712968C91B5
:1014C0001297482F4F7750E0982F991F9927991F0F
:1014D00013966C911397862F880F892B90E0661FC7
:1014E0006627661F6183009739F52115310541058F
:1014F000510511F482E029C082E89FEF9383828333
:1015000067E0220F331F441F551F6A95D1F783E010
:10151000808309C0220F331F441F551F828193818E
:10152000019793838283203080E0380780E048076A
:1015300080E4580778F320C08F3F910579F4211596
:1015400031054105510519F484E08083089544FF75
:1015500003C081E0808310C010820EC08F5790407E
:101560009383828383E0808387E0220F331F441FAD
:10157000551F8A95D1F7506424833583468357835A
:101580000895FC01DB019081923008F449C08C91F0
:10159000823008F445C0943051F461818430B1F553
:1015A00011962C91119730E0261B310941C08430EF
:1015B00021F0923041F48230B1F111968C91119763
:1015C0008823A1F12DC06181823001F111968C91A7
:1015D00011976817D9F42281338112968D919C91CD
:1015E00013978217930794F028173907BCF02481CA
:1015F00035814681578114968D919D910D90BC91B6
:10160000A02D82179307A407B50718F4662341F0AD
:101610000DC0281739074A075B0728F4662331F005
:1016200021E030E005C020E030E002C02FEF3FEFC6
:10163000C90108952F923F924F925F926F927F92CD
:101640008F929F92AF92BF92CF92DF92EF92FF92D2
:101650000F931F93CF93DF93CDB7DEB7CA1BDB0B7E
:101660000FB6F894DEBF0FBECDBF09942A88398823
:1016700048885F846E847D848C849B84AA84B9842A
:10168000C884DF80EE80FD800C811B81AA81B98136
:10169000CE0FD11D0FB6F894DEBF0FBECDBFED014A
:1016A0000895EF92FF920F931F93CF93DF937C01E6
:1016B000EB018B8181FF11C000E010E008C0E885DC
:1016C000F985BE010995009711F00FEF1FEFF701A3
:1016D00081917F01882399F702C00FEF1FEFC801A6
:1016E000CDB7DEB7E6E00C94420B9F9305D00F9088
:1016F00007FCEE5F28C0CEC03FD0E8F3E894E0E0FE
:10170000BB279F57F0F02AED3FE049EC06C0EE0FF3
:10171000BB0F661F771F881F28F0B23A6207730756
:10172000840728F0B25A620B730B840BE3959A95E9
:1017300072F7803830F49A95BB0F661F771F881FA9
:10174000D2F790489BC0EF93E0FF06C0A2EA2AEDD3
:101750003FE049EC5FEB37D0BFD00F90039401FC22
:101760009058E0E7F0E099C057FD9058440F551F9E
:1017700059F05F3F71F04795880F97FB991F61F013
:101780009F3F79F087950895121613061406551F8A
:10179000F2CF4695F1DF08C0161617061806991FF6
:1017A000F1CF8695710561050894089587D030F0D2
:1017B0008CD020F031F49F3F11F41EF46BC00EF476
:1017C000E095E7FB53C0E92FCFDF80F3BA1762073C
:1017D00073078407950718F071F49EF58EC00EF418
:1017E000E0950B2EBA2FA02D0B01B90190010C0131
:1017F000CA01A0011124FF27591B99F0593F50F449
:10180000503E68F11A16F040A22F232F342F4427A0
:10181000585FF3CF469537952795A795F040539598
:10182000C9F77EF41F16BA0B620B730B840BBAF068
:101830009150A1F0FF0FBB1F661F771F881FC2F7D3
:101840000EC0BA0F621F731F841F48F487957795E7
:101850006795B795F7959E3F08F0B3CF9395880F9E
:1018600008F09927EE0F97958795089597F99F6748
:1018700080E870E060E008959F3F31F0915020F4DF
:10188000879577956795B795880F911D969587955C
:1018900097F908959FEF80EC08959F938F937F931E
:1018A0006F93FF93EF939B01AC01E6DAEF91FF9109
:1018B0002BD02F913F914F915F91DECA00240A9463
:1018C0001616170618060906089500240A9412161B
:1018D0001306140605060895092E0394000C11F44E
:1018E000882352F0BB0F40F4BF2B11F460FF04C0FB
:1018F0006F5F7F4F8F4F9F4F0895E894BB276627F8
:101900007727CB0197F90895DF93CF931F930F9318
:10191000FF92EF92DF927B018C01689405C0DA2E72
:10192000EF0121D0FE01E894A591259135914591D3
:101930005591AEF3EF0147DFFE019701A801DA945C
:1019400079F7DF90EF90FF900F911F91CF91DF918A
:101950000895B4DF28F0B9DF18F0952309F086CF99
:1019600099CF1124CBCF00DFA0F3959FD1F3950F32
:1019700050E0551F629FF001729FBB27F00DB11D13
:10198000639FAA27F00DB11DAA1F649F6627B00DA3
:10199000A11D661F829F2227B00DA11D621F739F8C
:1019A000B00DA11D621F839FA00D611D221F749F9A
:1019B0003327A00D611D231F849F600D211D822FE1
:1019C000762F6A2F11249F5750408AF0E1F0882328
:1019D0004AF0EE0FFF1FBB1F661F771F881F915035
:1019E0005040A9F79E3F510570F040CF87CF5F3F31
:1019F000ECF3983EDCF3869577956795B795F79568
:101A0000E7959F5FC1F7FE2B880F911D96958795EF
:081A100097F90895F894FFCF47
:101A18005374617274696E672E2E2E0A0D000000D1
:101A280000030000000060027C0200002A72696E58
:101A3800672A0A0050697065206E756D62657220AC
:101A48006D75737420626520696E2072616E6765BA
:101A5800203020746F20350A005041594C4F4144C2
:101A68005F4C454E475448206D757374206265205D
:101A7800696E2072616E6765203120746F20333281
:101A88000A00000000000000000000010202030339
:101A980003030404040404040404050505050505FA
:101AA80005050505050505050505060606060606D8
:101AB80006060606060606060606060606060606BE
:101AC80006060606060606060606070707070707A8
:101AD800070707070707070707070707070707078E
:101AE800070707070707070707070707070707077E
:101AF800070707070707070707070707070707076E
:101B08000707070707070707070708080808080857
:101B1800080808080808080808080808080808083D
:101B2800080808080808080808080808080808082D
:101B3800080808080808080808080808080808081D
:101B4800080808080808080808080808080808080D
:101B580008080808080808080808080808080808FD
:101B680008080808080808080808080808080808ED
:101B780008080808080808080808080808080808DD
:0A1B88000808080808080808080803
:00000001FF
