:100000000C9438000C9455000C9455000C94550039
:100010000C9455000C9455000C9455000C9455000C
:100020000C9455000C9455000C9455000C945500FC
:100030000C9455000C9455000C9455000C945500EC
:100040000C9455000C9455000C9455000C945500DC
:100050000C9455000C9455000C9455000C945500CC
:100060000C9455000C9455000C9455000C945500BC
:1000700011241FBECFEFD0E1DEBFCDBF11E0A0E065
:10008000B1E0E4E4FAE002C005900D92A437B107B4
:10009000D9F711E0A4E7B1E001C01D92A33DB1077B
:1000A000E1F70E9457000C9420050C9400000F9378
:1000B0001F93CF93DF930E949F006AE071E07093DB
:1000C000D2016093D1017093CE016093CD01709302
:1000D000D0016093CF0180E091E00E94E10480E2D2
:1000E00090E09093C7018093C60181E00E94420393
:1000F00080E00E94180260E076EB85EB94EB40E034
:100100000E94B00260E076EB85EB94EB0E94BA02AD
:10011000C091C601D091C701CE010E94AE038C01EF
:100120009C01C80FD91FFC0103C08E2F821B819335
:10013000EC17FD07D1F7C8010E94E402FCCF87E667
:100140008093C40088E18093C10008951F93182F05
:10015000873049F46091D1017091D20188E191E03A
:100160000E94E1040BC08A3019F48DE00E94A600C1
:100170008091C00085FFFCCF1093C60080E090E026
:100180001F910895EF92FF920F931F93CF93DF93E8
:10019000EC018091740190917501009709F0A1C064
:1001A00006E711E08091C00087FFFCCF8091C0007E
:1001B00084FDA8C08091C00083FDA7C08091C600C7
:1001C0008D3011F08A3069F48AE0F8018083BE0135
:1001D0000E94A60086E791E09093750180937401D8
:1001E00080C0893009F480E2982F90529F3510F03A
:1001F000803A68F0F1E0053C1F0711F487E003C086
:10020000F80181938F01BE010E94A600CBCF8231FD
:1002100039F1833130F4833009F477C0883011F636
:100220000AC0873131F08F3731F0853109F0BACF0C
:1002300038C0780148C0F1E006371F0709F008F41C
:10024000B1CF88E0BE010E94A60080E2BE010E94FC
:10025000A60088E0BE010E94A60001501040A2CF77
:100260008DE0BE010E94A60086E7E82E81E0F82E10
:1002700006C0F70181917F01BE010E94A600E01631
:10028000F106B8F38FCF88E0BE010E94A60080E29D
:10029000BE010E94A60088E0BE010E94A600015097
:1002A0001040F1E006371F0709F068F77BCF88E0C0
:1002B000BE010E94A60080E2BE010E94A60088E066
:1002C000BE010E94A600870186E7E81681E0F806D5
:1002D00009F008F467CFF70182917F01803239F786
:1002E00061CFE0917401F09175012191F093750156
:1002F000E09374012A3021F4109275011092740178
:1003000030E005C02EEF3FEF02C02FEF3FEFC901F5
:10031000DF91CF911F910F91FF90EF900895813061
:1003200011F42C9A0895882309F42C9808958130AB
:1003300011F42A9A0895882309F42A9808958EBD05
:100340000DB407FEFDCF8EB50895FF920F931F9356
:10035000CF93DF938C0180E00E94970180E00E94A0
:100360008F0181E60E949F018EB58093C801FF2412
:1003700008C080E00E949F018EB5C00FD11F888306
:10038000F394CF2DD0E08091C6019091C701C8179A
:10039000D90778F381E00E948F0181E00E949701E4
:1003A0008091C80190E08E70907095958795DF914F
:1003B000CF911F910F91FF9008951F93182F88518F
:1003C000843098F01E3188F480E00E948F01812FE4
:1003D0000E949F018EB58093C80180E00E949F011A
:1003E00081E00E948F018EB501C08FEF1F910895AB
:1003F0001F93DF93CF930F92CDB7DEB7182F80E016
:1004000069830E948F01812F80620E949F01698110
:10041000862F0E949F0181E00E948F010F90CF9153
:10042000DF911F910895682F85E00E94F8010895DB
:100430000F931F93082F80E00E94DD01182F0023E7
:1004400049F480E00E949701612F6E7F80E00E9456
:10045000F80108C0682F616080E00E94F80181E027
:100460000E94970187E092E00197F1F700C0000039
:100470001F910F9108950F931F93082F863038F026
:100480006091CF017091D00180E291E00FC0209186
:10049000C6013091C701215030402032310548F06B
:1004A0006091CF017091D00185E491E00E94E10458
:1004B0002AC082E00E94DD01182F0330A1F0043031
:1004C00028F4013051F0023029F40AC0043071F0F0
:1004D000053079F0116081E10EC0126082E10BC03D
:1004E000146083E108C0186084E105C0106185E1F3
:1004F00002C0106286E16091C6010E94F80182E0AC
:10050000612F0E94F8011F910F9108950F931F937F
:10051000CF93DF93182F062F80E00E948F01812F49
:1005200080620E949F018EB58093C801802F0E9437
:100530009F01C02FD0E080E00E949F01990F880B9F
:10054000982F0E949F01990F880B982F0E949F015E
:1005500081E00E948F01DF91CF911F910F9108954B
:10056000842F865F423018F40E94860208950E940C
:10057000F801089580E10E948602089587E060E70F
:100580000E94F801089580E00E948F018FEF0E9481
:100590009F018EB58093C80181E00E948F018091F8
:1005A000C80108950E94C3028091C80185FF04C05C
:1005B0000E94BE0281E0089584FF04C00E94BE0232
:1005C00082E0089580E008951F93CF93DF93EC01BC
:1005D00080E00E948F0180EA0E949F018093C80101
:1005E00010E007C08C0F9D1FFC0180810E949F01BD
:1005F0001F5F812F90E02091C6013091C7018217C3
:10060000930780F381E00E948F0181E00E949701AF
:10061000F5E3FA95F1F7000087E092E00197F1F732
:1006200000C000000E94D202813019F08230D1F760
:1006300001C081E0DF91CF911F9108950E94C30214
:100640009091C8019E7081E09E3009F480E0089589
:1006500080E00E948F0181EE0E949F018EB5809301
:10066000C80181E00E948F01089580E00E948F01FF
:1006700082EE0E949F018EB58093C80181E00E94A6
:100680008F0108951F93182F2091C6013091C70143
:10069000215030402032310548F06091CF017091F7
:1006A000D00185E491E00E94E1044AC084EB84B962
:1006B00080E58CBD80E00E9497018FEF91EEA4E071
:1006C00081509040A040E1F700C0000083E062E06C
:1006D0000E94F80185E060E00E94F80186E06EE08B
:1006E0000E94F80181E16091C6010E94F80182E157
:1006F0006091C6010E94F8018DE160E00E94F8015E
:100700008CE160E00E94F801113019F481E06FE3A0
:1007100002C081E060E00E94F80180E06BE00E948E
:10072000F8010E94BE020E9428030E943503AFE137
:10073000BEE41197F1F700C0000081E00E9497012C
:100740001F9108950E94C3028091C80186FF04C0D2
:100750000E94BE0281E0089580E00895CF93DF9368
:100760008230910510F482E090E0E091CB01F091AD
:10077000CC0140E050E020E030E026C06081718193
:1007800068177907E0F06817790781F4828193810F
:100790002115310531F0D90113969C938E93129750
:1007A0002BC09093CC018093CB0126C041155105FD
:1007B00019F06417750718F4AB01E901DF019F0117
:1007C00072816381E72FF62F3097C1F641155105ED
:1007D00001F1481B590B4430510580F412968D915C
:1007E0009C911397209719F09B838A8304C0909360
:1007F000CC018093CB01FD01329646C0FD01E40F90
:10080000F51F819391934250504011965C934E9303
:100810003BC02091C9013091CA012115310541F435
:1008200020917001309171013093CA012093C90168
:1008300020917201309173012115310541F42DB7DA
:100840003EB740916E0150916F01241B350BE09132
:10085000C901F091CA01E217F307A0F42E1B3F0B68
:100860002817390778F0AC014E5F5F4F2417350722
:1008700048F04E0F5F1F5093CA014093C901819306
:10088000919302C0E0E0F0E0CF01DF91CF910895B5
:10089000CF93DF93009709F491C0FC013297138244
:1008A00012826091CB017091CC016115710581F4C8
:1008B00020813181280F391F8091C9019091CA018F
:1008C0008217930799F5F093CA01E093C90176C0A6
:1008D000DB0180E090E002C0CD01D901AE17BF0777
:1008E00048F412962D913C91139721153105A1F7EB
:1008F000CD0121C0B383A283EF01499159919E019B
:10090000240F351FA217B30779F42D913C9111974D
:10091000240F351F2E5F3F4F3183208312962D9178
:100920003C91139733832283009729F4F093CC01F1
:10093000E093CB0143C0DC011396FC93EE93129736
:100940004D915D91A40FB51FEA17FB0769F4208153
:100950003181240F351F2E5F3F4FEC0139832883EF
:10096000228133813B832A83E0E0F0E002C0FB0177
:10097000BC01DB0112968D919C9113970097B9F7FA
:100980009B012E5F3F4F8D919C911197820F931F7A
:100990004091C9015091CA014817590779F430971D
:1009A00029F41092CC011092CB0102C01382128262
:1009B000225030403093CA012093C901DF91CF917A
:1009C0000895EF92FF920F931F93CF93DF937C01D3
:1009D000EB018B8181FF11C000E010E008C0E885C9
:1009E000F985BE010995009711F00FEF1FEFF70190
:1009F00081917F01882399F702C00FEF1FEFC80193
:100A0000CDB7DEB7E6E00C9411052A88398848880E
:100A10005F846E847D848C849B84AA84B984C8841A
:100A2000DF80EE80FD800C811B81AA81B981CE0F11
:100A3000D11D0FB6F894DEBF0FBECDBFED010895F6
:040A4000F894FFCF58
:100A44007374617274696E670A0000000003000029
:100A54000000A600C20000002A72696E672A0A001C
:100A640050697065206E756D626572206D75737462
:100A740020626520696E2072616E67652030207483
:100A84006F20350A005041594C4F41445F4C454E4C
:100A9400475448206D75737420626520696E207216
:100AA400616E6765203120746F2033320A002000A4
:040AB400D30100006A
:00000001FF
