:100000000C9438000C9455000C9455000C94550039
:100010000C9455000C9455000C9455000C9455000C
:100020000C9455000C9455000C9455000C945500FC
:100030000C9455000C9455000C9455000C945500EC
:100040000C9455000C9455000C9455000C945500DC
:100050000C9455000C9455000C9455000C945500CC
:100060000C9455000C9455000C9455000C945500BC
:1000700011241FBECFEFD0E1DEBFCDBF11E0A0E065
:10008000B1E0EEE7F1E102C005900D92AE39B107A3
:10009000D9F712E0AEE9B1E001C01D92A330B1077B
:1000A000E1F70E9457000C94BD080C9400007F9269
:1000B0008F929F92AF92BF92CF92DF92EF92FF9278
:1000C0000F931F93CF93DF9380E280937C0087ECA4
:1000D00080937A000E9462016DE271E070930202E7
:1000E000609301027093FE016093FD017093000222
:1000F0006093FF0180E091E00E94B8058AE090E003
:100100009093F2018093F10181E00E94050480E068
:100110000E94DB0260E076EB85EB94EB40E00E940E
:10012000730360E076EB85EB94EB0E947D03109205
:10013000F5011092F4011092F3018EE48093F00126
:100140008091F1019091F2010E9471047C0130E0F4
:10015000CAE0D1E00BE311E043E1A42E41E0B42E6C
:100160002EE4C22E9924939496E4892E82E4782E6C
:100170008091F4019091F501883C91050CF498C0B0
:10018000809179008093F70180917A008064809358
:100190007A0086B190E0809590958F70907000976E
:1001A000E9F08091F3018823C9F49092F30186B1BC
:1001B00090E0809590958F7090708130910521F03E
:1001C0008230910539F403C08092F00105C070922D
:1001D000F00102C0C092F00121E001C020E086B130
:1001E00090E0809590958F709070009749F4809181
:1001F000F301813029F41092F301C092F00121E063
:10020000D090F701D31619F4213009F04CC08DB706
:100210009EB70A970FB6F8949EBF0FBE8DBFEDB77D
:10022000FEB73196ADB7BEB71196EC92F182D3838B
:10023000C283158304838091F00186831782D08660
:1002400011860E94DC058DB79EB70A960FB6F8940A
:100250009EBF0FBE8DBF6091FF0170910002C7016C
:100260000E94B805C7010E94A70300D000D000D0AB
:10027000EDB7FEB731962091FF0130910002ADB786
:10028000BEB712963C932E931197B382A2828483B9
:1002900015820E94A4058DB79EB706960FB6F894F6
:1002A0009EBF0FBE8DBF1092F5011092F4013D2D3F
:1002B0008091F4019091F50101969093F50180935E
:1002C000F40156CF87E68093C40088E18093C10093
:1002D00008951F93182F873049F46091010270919F
:1002E000020282E491E00E94B8050BC08A3019F442
:1002F0008DE00E9469018091C00085FFFCCF1093C2
:10030000C60080E090E01F910895EF92FF920F9356
:100310001F93CF93DF93EC0180919E0190919F01F9
:10032000009709F0A1C000EA11E08091C00087FFAA
:10033000FCCF8091C00084FDA8C08091C00083FDE7
:10034000A7C08091C6008D3011F08A3069F48AE030
:10035000F8018083BE010E94690180EA91E09093D8
:100360009F0180939E0180C0893009F480E2982F1C
:1003700090529F3510F0803A68F0F1E00F3E1F0771
:1003800011F487E003C0F80181938F01BE010E9440
:100390006901CBCF823139F1833130F4833009F4F4
:1003A00077C0883011F60AC0873131F08F3731F0CD
:1003B000853109F0BACF38C0780148C0F1E0003A81
:1003C0001F0709F008F4B1CF88E0BE010E9469015F
:1003D00080E2BE010E94690188E0BE010E946901BD
:1003E00001501040A2CF8DE0BE010E94690180EA59
:1003F000E82E81E0F82E06C0F70181917F01BE0151
:100400000E946901E016F106B8F38FCF88E0BE01C3
:100410000E94690180E2BE010E94690188E0BE017C
:100420000E94690101501040F1E0003A1F0709F0F5
:1004300068F77BCF88E0BE010E94690180E2BE01BF
:100440000E94690188E0BE010E946901870180EA7B
:10045000E81681E0F80609F008F467CFF701829109
:100460007F01803239F761CFE0919E01F0919F01C9
:100470002191F0939F01E0939E012A3021F4109284
:100480009F0110929E0130E005C02EEF3FEF02C0A9
:100490002FEF3FEFC901DF91CF911F910F91FF9097
:1004A000EF900895813011F42C9A0895882309F46F
:1004B0002C980895813011F42A9A0895882309F41C
:1004C0002A9808958EBD0DB407FEFDCF8EB5089510
:1004D000FF920F931F93CF93DF938C0180E00E94D4
:1004E0005A0280E00E94520281E60E9462028EB5AA
:1004F0008093F801FF2408C080E00E9462028EB55C
:10050000C00FD11F8883F394CF2DD0E08091F101EB
:100510009091F201C817D90778F381E00E94520246
:1005200081E00E945A028091F80190E08E709070F4
:1005300095958795DF91CF911F910F91FF90089529
:100540001F93182F8851843098F01E3188F480E072
:100550000E945202812F0E9462028EB58093F801A0
:1005600080E00E94620281E00E9452028EB501C0CA
:100570008FEF1F9108951F93DF93CF930F92CDB705
:10058000DEB7182F80E069830E945202812F8062BB
:100590000E9462026981862F0E94620281E00E94AD
:1005A00052020F90CF91DF911F910895682F85E03F
:1005B0000E94BB0208950F931F93082F80E00E94B2
:1005C000A002182F002349F480E00E945A02612FF4
:1005D0006E7F80E00E94BB0208C0682F616080E0EF
:1005E0000E94BB0281E00E945A0287E092E00197DC
:1005F000F1F700C000001F910F9108950F931F9312
:10060000082F863038F06091FF01709100028AE473
:1006100091E00FC02091F1013091F2012150304062
:100620002032310548F06091FF01709100028FE6A1
:1006300091E00E94B8052AC082E00E94A002182F13
:100640000330A1F0043028F4013051F0023029F4D5
:100650000AC0043071F0053079F0116081E10EC0FC
:10066000126082E10BC0146083E108C0186084E16D
:1006700005C0106185E102C0106286E16091F10160
:100680000E94BB0282E0612F0E94BB021F910F916A
:1006900008950F931F93CF93DF93182F062F80E0B9
:1006A0000E945202812F80620E9462028EB5809366
:1006B000F801802F0E946202C02FD0E080E00E94EB
:1006C0006202990F880B982F0E946202990F880B83
:1006D000982F0E94620281E00E945202DF91CF9126
:1006E0001F910F910895842F865F423018F40E9465
:1006F000490308950E94BB02089580E10E944903C6
:10070000089587E060E70E94BB02089580E00E94A0
:1007100052028FEF0E9462028EB58093F80181E051
:100720000E9452028091F80108950E9486038091F0
:10073000F80185FF04C00E94810381E0089584FFD1
:1007400004C00E94810382E0089580E008951F9311
:10075000CF93DF93EC0180E00E94520280EA0E9476
:1007600062028093F80110E007C08C0F9D1FFC010E
:1007700080810E9462021F5F812F90E02091F10131
:100780003091F2018217930780F381E00E945202B8
:1007900081E00E945A02F5E3FA95F1F7000087E044
:1007A00092E00197F1F700C000000E9495038130AC
:1007B00019F08230D1F701C081E0DF91CF911F9114
:1007C00008950E9486039091F8019E7081E09E300A
:1007D00009F480E0089580E00E94520281EE0E94B8
:1007E00062028EB58093F80181E00E945202089562
:1007F00080E00E94520282EE0E9462028EB58093D7
:10080000F80181E00E94520208951F93182F209151
:10081000F1013091F201215030402032310548F091
:100820006091FF01709100028FE691E00E94B8058F
:100830004AC084EB84B980E58CBD80E00E945A02F6
:100840008FEF91EEA4E081509040A040E1F700C00E
:10085000000083E062E00E94BB0285E060E00E944D
:10086000BB0286E06EE00E94BB0281E16091F10173
:100870000E94BB0282E16091F1010E94BB028DE106
:1008800060E00E94BB028CE160E00E94BB0211307C
:1008900019F481E06FE302C081E060E00E94BB02D6
:1008A00080E06BE00E94BB020E9481030E94EB0388
:1008B0000E94F803AFE1BEE41197F1F700C0000019
:1008C00081E00E945A021F9108950E948603809140
:1008D000F80186FF04C00E94810381E0089580E052
:1008E0000895CF93DF938230910510F482E090E079
:1008F000E091FB01F091FC0140E050E020E030E0AD
:1009000026C06081718168177907E0F06817790760
:1009100081F4828193812115310531F0D90113963B
:100920009C938E9312972BC09093FC018093FB01B4
:1009300026C04115510519F06417750718F4AB016D
:10094000E901DF019F0172816381E72FF62F309764
:10095000C1F64115510501F1481B590B44305105B1
:1009600080F412968D919C911397209719F09B8398
:100970008A8304C09093FC018093FB01FD013296B1
:1009800046C0FD01E40FF51F819391934250504002
:1009900011965C934E933BC02091F9013091FA017E
:1009A0002115310541F420919A0130919B0130933A
:1009B000FA012093F90120919C0130919D012115AC
:1009C000310541F42DB73EB74091980150919901FE
:1009D000241B350BE091F901F091FA01E217F307BE
:1009E000A0F42E1B3F0B2817390778F0AC014E5F9F
:1009F0005F4F2417350748F04E0F5F1F5093FA01E1
:100A00004093F9018193919302C0E0E0F0E0CF01BF
:100A1000DF91CF910895CF93DF93009709F491C0B0
:100A2000FC013297138212826091FB017091FC01EC
:100A30006115710581F420813181280F391F809162
:100A4000F9019091FA018217930799F5F093FA0151
:100A5000E093F90176C0DB0180E090E002C0CD01B7
:100A6000D901AE17BF0748F412962D913C91139708
:100A700021153105A1F7CD0121C0B383A283EF0178
:100A8000499159919E01240F351FA217B30779F49C
:100A90002D913C911197240F351F2E5F3F4F3183CD
:100AA000208312962D913C911397338322830097D4
:100AB00029F4F093FC01E093FB0143C0DC011396A1
:100AC000FC93EE9312974D915D91A40FB51FEA1719
:100AD000FB0769F420813181240F351F2E5F3F4FC2
:100AE000EC0139832883228133813B832A83E0E030
:100AF000F0E002C0FB01BC01DB0112968D919C91DC
:100B000013970097B9F79B012E5F3F4F8D919C91F2
:100B10001197820F931F4091F9015091FA014817E4
:100B2000590779F4309729F41092FC011092FB01D7
:100B300002C013821282225030403093FA01209377
:100B4000F901DF91CF910895A0E0B0E0EAEAF5E085
:100B50000C9496089E01275F3F4F8D819E816F8187
:100B60007885A9010E94FF052096E2E00C94B20866
:100B7000EF92FF920F931F93CF93DF937C01EB01D2
:100B80008B8181FF11C000E010E008C0E885F98585
:100B9000BE010995009711F00FEF1FEFF70181914A
:100BA0007F01882399F702C00FEF1FEFC801CDB76F
:100BB000DEB7E6E00C94AE08AEE0B0E0E2EEF5E0C1
:100BC0000C9494080D891E8986E08C831A8309830E
:100BD0008FEF9FE79E838D839E01275E3F4FCE015F
:100BE00001966F89788DA9010E94FF05EF81F88534
:100BF000E00FF11F10822E96E4E00C94B008ACE0F8
:100C0000B0E0E5E0F6E00C9486086C011B018A0177
:100C1000FC0117821682838181FFD1C12E010894C5
:100C2000411C511CF6019381F10193FD859193FFC5
:100C300081911F01882309F4BEC1853239F493FDE7
:100C4000859193FF81911F01853229F490E0B601CF
:100C50000E94FC07E7CFEE24FF2420E02032B0F40E
:100C60008B3269F08C3228F4803251F0833271F487
:100C70000BC08D3239F0803349F421602CC02260E2
:100C8000246029C0286027C0206125C027FD2CC012
:100C9000382F30533A3098F426FF08C08E2D880F35
:100CA000E82EEE0CEE0CE80EE30E15C08F2D880F2B
:100CB000F82EFF0CFF0CF80EF30E20620CC08E32E3
:100CC00021F426FD78C1206406C08C3611F420681A
:100CD00002C0883649F4F10193FD859193FF81911B
:100CE0001F01882309F0BACF982F9554933018F03C
:100CF0009052933028F40C5F1F4FFFE3F9830DC02F
:100D0000833631F0833771F0833509F060C022C03B
:100D1000F801808189830E5F1F4F420171E0A72E89
:100D2000B12C16C062E0662E712C600E711EF801A7
:100D30008080918026FF03C06E2D70E002C06FEFAF
:100D40007FEFC4012C870E94F1075C0183012C8591
:100D50002F7717C052E0652E712C600E711EF801BE
:100D60008080918026FF03C06E2D70E002C06FEF7F
:100D70007FEFC4012C870E94E6075C012C85206868
:100D8000830123FD20C008C080E290E0B6012C87DB
:100D90000E94FC07FA942C858F2D90E0A816B906C6
:100DA00098F311C0F40127FD859127FF81914F0130
:100DB00090E0B6012C870E94FC072C85F110FA9474
:100DC0000894A108B108A114B10461F7F1C08436F8
:100DD00011F0893649F527FF08C0F801608171815B
:100DE000828193810C5F1F4F09C0F801608171817E
:100DF000882777FD8095982F0E5F1F4F4FE6B42E02
:100E0000B22297FF09C090958095709561957F4FAC
:100E10008F4F9F4FF0E8BF2AA2012AE030E00E94E6
:100E20002808782E741845C0853731F43FEEB32E6C
:100E3000B2222AE030E025C099EFB92EB2228F36D7
:100E4000C1F0803720F4883509F0B5C00DC0803777
:100E500021F0883709F0AFC002C020E1B22AB4FE09
:100E60000BC084E0B82A08C0B4FE09C0E6E0BE2A80
:100E700006C028E030E005C020E130E002C020E1FB
:100E800032E0B7FE08C0F8016081718182819381F0
:100E90000C5F1F4F07C0F8016081718180E090E016
:100EA0000E5F1F4FA2010E942808782E7418FFE7DA
:100EB000BF22B6FE0BC02EEFB2227E1438F4B4FE71
:100EC00007C0B2FC05C08FEEB82202C0A72C01C03B
:100ED000AE2C8B2D90E0B4FE0DC0FE01E70DF11D90
:100EE0002081203319F4E9EEBE2209C0A394B2FE9A
:100EF00006C004C086789070009709F0A3948B2CEC
:100F00009924B3FC14C0B0FE0FC0AF1428F4E72C32
:100F1000EF0CEA18AF2C08C0E72C06C080E290E086
:100F2000B6010E94FC07A394AF14C0F304C0AF1431
:100F300010F4FA1801C0FF2484FE0FC080E390E093
:100F4000B6010E94FC0782FE1FC081FE03C088E537
:100F500090E010C088E790E00DC0C40186789070E2
:100F6000009791F081FC02C080E201C08BE2B7FCE7
:100F70008DE290E0B6010E94FC0706C080E390E09D
:100F8000B6010E94FC07EA947E14C0F37A94F20141
:100F9000E70DF11D808190E0B6010E94FC077720EB
:100FA000A9F706C080E290E0B6010E94FC07FA941F
:100FB000FF20C1F737CEF6012681378102C02FEF1F
:100FC0003FEFC9012C96E2E10C94A208FC010590C8
:100FD000615070400110D8F7809590958E0F9F1F3B
:100FE0000895FC016150704001900110D8F7809580
:100FF00090958E0F9F1F08950F931F93CF93DF93AC
:101000008C01EB018B8181FF1BC082FF0DC02E8103
:101010003F818C819D812817390764F4E881F9812B
:101020000193F983E88306C0E885F985802F099547
:10103000009731F48E819F8101969F838E8302C039
:101040000FEF1FEFC801DF91CF911F910F9108950E
:10105000FA01AA27283051F1203181F1E8946F93E9
:101060006E7F6E5F7F4F8F4F9F4FAF4FB1E03ED08F
:10107000B4E03CD0670F781F891F9A1FA11D680F2D
:10108000791F8A1F911DA11D6A0F711D811D911D60
:10109000A11D20D009F468943F912AE0269F1124D5
:1010A0003019305D3193DEF6CF010895462F477039
:1010B000405D4193B3E00FD0C9F7F6CF462F4F7094
:1010C000405D4A3318F0495D31FD4052419302D0F2
:1010D000A9F7EACFB4E0A695979587957795679598
:1010E000BA95C9F700976105710508959B01AC0198
:1010F0000A2E06945795479537952795BA95C9F7BF
:10110000620F731F841F951FA01D08952F923F9299
:101110004F925F926F927F928F929F92AF92BF9207
:10112000CF92DF92EF92FF920F931F93CF93DF93B3
:10113000CDB7DEB7CA1BDB0B0FB6F894DEBF0FBE10
:10114000CDBF09942A88398848885F846E847D845D
:101150008C849B84AA84B984C884DF80EE80FD805F
:101160000C811B81AA81B981CE0FD11D0FB6F894D5
:0E117000DEBF0FBECDBFED010895F894FFCF96
:10117E007374617274696E670A0025367325632570
:10118E003364000A7472616E736D697373696F6E86
:10119E0020726573756C743A2025640A0000000095
:1011AE0003000000006901850100006162633233B3
:1011BE0034002A72696E672A0A0050697065206EC3
:1011CE00756D626572206D75737420626520696E2F
:1011DE002072616E6765203020746F20350A0050D2
:1011EE0041594C4F41445F4C454E475448206D7514
:1011FE00737420626520696E2072616E676520319E
:0E120E0020746F2033320A002000030200001B
:00000001FF
